:020000040800F2
:10000000B80E002045010008C1260008C3260008DC
:10001000D3260008D7260008DB26000800000000D1
:10002000000000000000000000000000DF260008C3
:10003000E126000800000000E3260008E52600088D
:100040005F0100085F0100085F0100085F01000810
:100050005F0100085F0100085F0100085F01000800
:100060005F0100085F010008E72600085F01000843
:100070005F0100085F0100085F0100085F010008E0
:100080005F0100085F0100085F0100085F010008D0
:100090005F0100085F0100085F0100085F010008C0
:1000A0005F0100085F0100085F0100085F010008B0
:1000B0000D2700085F0100085F0100085F010008CC
:1000C0005F0100085F0100085F0100085F01000890
:1000D0005F0100085F0100085F0100087B45000820
:1000E0005F0100085F0100085F0100085F01000870
:1000F0005F0100085F0100085F0100085F01000860
:100100005F0100085F0100085F0100085F0100084F
:100110005F0100085F0100085F0100085F0100083F
:100120005F0100085F0100085F0100085F0100082F
:10013000DFF80CD004F0E0FF004800476D25000810
:10014000B80E00200648804706480047FEE7FEE755
:10015000FEE7FEE7FEE7FEE7FEE7FEE7FEE7FEE777
:1001600045020008310100080CB500200190009004
:100170006B48006840F480306949086000BF6848F7
:10018000006800F4003000900198401C0190009835
:1001900018B90198B0F5A06FF1D16148006810F46A
:1001A000003F02D00120009001E000200090009864
:1001B000012842D15B48006840F0100059490860AE
:1001C0000846006820F0030008600846006840F018
:1001D000020008605248406851494860084640683B
:1001E00048600846406840F48060486008464068BF
:1001F00020F47C1048600846406840F4E8104860ED
:100200000846006840F08070086000BF44480068FD
:1002100010F0007FFAD04248406820F003004049C7
:1002200048600846406840F00200486000BF3C4813
:10023000406800F00C000828F9D10CBD10B5FFF79C
:1002400093FF10BD10B53648006840F001003449F6
:10025000086008464068344908403149486008460B
:100260000068324908402E4908600846006820F4BA
:10027000802008600846406820F4FE0048604FF483
:100280001F008860FFF7DAFF4FF000602849086020
:1002900010BD10B5002100200022214B5B6803F047
:1002A0000C0121B1042906D0082928D107E0214BEF
:1002B000214C236027E01F4B1F4C236023E0184B89
:1002C0005B6803F47010164B5B6803F48032022302
:1002D00003EB904022B9194B4343174C23600DE0C8
:1002E0000F4B5B6813F4003F04D0144B4343124C94
:1002F000236003E00F4B43430F4C236003E00D4B9F
:100300000D4C236000BF00BF054B5B68C3F30313B4
:100310000B4CE15C084B1B68CB40074C236010BDC5
:1003200000100240002002400000FFF8FFFFF6FE30
:1003300008ED00E000127A000000002000093D00F6
:100340000400002031490143314A1160704770B503
:10035000002100230F22C4780CB32D4C246804F430
:10036000E064C4F5E064210AC1F10403CA404478A2
:1003700004FA03F18478144021430901254C0678DE
:10038000A155047804F01F050124AC4005786D11D7
:100390004FF0E02606EB8505C5F8004109E004783A
:1003A00004F01F050124AC401B4D0678761145F87A
:1003B000264070BD194A0A400243154B1B1F1A60A4
:1003C000704739B1124A121D12680243104B1B1DAF
:1003D0001A6006E00E4A121D126882430C4B1B1D68
:1003E0001A607047042808D14FF0E021096941F0F4
:1003F00004014FF0E022116107E04FF0E0210969AC
:1004000021F004014FF0E022116170470000FA056D
:100410000CED00E000E400E080E100E080FFFF1F61
:10042000002044490860091D0860091D0860091D75
:10043000086041483F4914310860704700213D4938
:100440008279002A3AD00A46126803689A430B461A
:100450001A600A1D126803689A430B1D1A6002791C
:1004600011440A6803681A430A60324A0832126863
:1004700003689A432F4B08331A601A1D12680368E9
:100480009A432C4B0C331A604279102A0ED11A1F52
:10049000126803681A43274B08331A601A1D126842
:1004A00003681A43234B0C331A600DE0214942794B
:1004B00011440A6803681A430A6005E0027911448E
:1004C0000A6803689A430A6070470021016001715D
:1004D0000C21417100218171704716491031096862
:1004E0000143144A10321160704701460020114A3E
:1004F000143212680A4201D0012000E00020704747
:100500000C49143108607047014600200022094B55
:100510001B6803EA0102074B14331B680B4202D02D
:100520000AB1012000E00020704702491431086040
:100530007047000000040140FFFF0F0010B50446A3
:10054000CA48844208D10121042000F029FD00217D
:10055000042000F025FD46E0C548844208D1012171
:10056000082000F01DFD0021082000F019FD3AE0F0
:10057000C048844208D10121102000F011FD002163
:10058000102000F00DFD2EE0BB48844208D101216F
:10059000202000F005FD0021202000F001FD22E0D8
:1005A000B648844208D10121402000F0F9FC002126
:1005B000402000F0F5FC16E0B148844208D101214A
:1005C000802000F0EDFC0021802000F0E9FC0AE032
:1005D000AC48844207D10121801500F0E1FC0021E4
:1005E000A01500F0DDFC10BD10B50121084600F09B
:1005F000D7FC0021012000F0D3FC10BD2DE9F04113
:10060000024600250026002000230024002791F840
:1006100003C00CF00F0591F803C01CF0100F03D0BD
:1006200091F802C04CEA050591F800C0BCF1000F3A
:1006300031D0146800202BE04FF0010C0CFA00F3CD
:10064000B1F800C00CEA03069E4220D183004FF0AF
:100650000F0C0CFA03F7BC4305FA03FC4CEA040444
:1006600091F803C0BCF1280F06D14FF0010C0CFA31
:1006700000FCC2F814C00AE091F803C0BCF1480FB6
:1006800005D14FF0010C0CFA00FCC2F810C0401C60
:100690000828D1D31460B1F800C0BCF1FF0F34DDDD
:1006A000546800202EE000F1080C4FF0010808FA11
:1006B0000CF3B1F800C00CEA03069E4221D183007E
:1006C0004FF00F0C0CFA03F7BC4305FA03FC4CEA9D
:1006D000040491F803C0BCF1280F05D100F1080C07
:1006E00008FA0CF8C2F8148091F803C0BCF1480F66
:1006F00007D100F1080C4FF0010808FA0CF8C2F815
:100700001080401C0828CED35460BDE8F0814FF61D
:10071000FF710180022181700421C170704702467F
:10072000002093680B4201D0012000E000207047B8
:100730000146886880B2704702460020D3680B42A9
:1007400001D0012000E0002070470146C86880B257
:10075000704701617047416170470AB1016100E073
:1007600041617047C16070474FF480320A43826133
:100770008161826182698269704702460020424B32
:1007800018684FF68073184040EA021008433E4B49
:10079000186070473D49C8617047F0B50A460023AC
:1007A00000240021002500F00046B6F1004F02D1E0
:1007B000354EF16901E0344E7168C0F3034583B2F0
:1007C00000F44016B6F5401F08D121F070612E4E9E
:1007D000766826F070662C4F7E6012E000F480167A
:1007E000B6F5801F06D1032606FA05F4A14341F0B1
:1007F000706106E0460D360103FA06F6B14341F09A
:10080000706122B1460D360103FA06F6314300F05D
:100810000046B6F1004F02D11B4EF16101E01A4EC5
:100820007160F0BD30B500228B071C0F0F2303FA57
:1008300004F2154B08338C1053F824309343124CB8
:1008400008348D1044F8253023468C1053F824309A
:100850008C07240F00FA04F423430B4C08348D104A
:1008600044F8253030BD0A4908607047000801404F
:10087000000C01400010014000140140001801402C
:10088000001C014000200140000001400000204207
:10089000DC00204210B50446F748844209D101210A
:1008A000480500F08AFB00214FF4001000F085FBA2
:1008B00008E00121880500F080FB00214FF4800052
:1008C00000F07BFB10BD2DE9F04385B004460D46DA
:1008D0000026B1460427DFF8A483A6884FF6C0702F
:1008E0000640684600F0D5FADDF80880E448B8FB19
:1008F000F0F01FFA80F946EA0906A68020884FF634
:10090000FE71084020800026DE49286888420CD805
:1009100028684000B8FBF0F087B2042F00DA042703
:100920003E4309F10100208427E0E888A0F53F411B
:10093000FF3906D1286800EB4000B8FBF0F087B221
:1009400009E0286800EBC00101EB0010B8FBF0F0F3
:1009500087B247F480473805000D01D147F0010701
:1009600047F4004006434FF4967009FB00F04FF443
:100970007A7190FBF1F0401C2084A683208840F01F
:100980000100208026884FF6F5300640A888698946
:10099000084306432680A88929890843208105B099
:1009A000BDE8F08341F288310160002181804BF67F
:1009B000FF71C1800021018141814FF4804181811B
:1009C000704721B1028842F00102028004E00288EF
:1009D0004FF6FE731A400280704721B1828842F4BC
:1009E0000062828004E082884FF2FF731A408280A6
:1009F000704721B1828842F48052828004E082886C
:100A00004EF6FF731A408280704721B1028842F48B
:100A10008072028004E002884FF6FF631A40028071
:100A2000704721B1028842F40072028004E002881B
:100A30004FF6FF531A400280704721B1028842F4FA
:100A40008062028004E002884FF6FF331A40028081
:100A500070470A46002181894FF60173194002F060
:100A6000FE0319438181704721B1828942F001025E
:100A7000828104E082894FF6FE731A4082817047BA
:100A800021B1028842F04002028004E002884FF661
:100A9000BF731A40028070471AB183880B4383806A
:100AA00002E083888B438380704701827047014650
:100AB000088AC0B2704712B141F0010102E04FF65E
:100AC000FE7319400182704708B50246002000906D
:100AD00000920098084400900098008808BD21B159
:100AE000028842F40042028003E00288C2F30E0250
:100AF00002807047B1F5006F04D1028842F40062B1
:100B0000028004E002884FF2FF731A4002807047AF
:100B1000B1F5005F04D1028842F40052028004E083
:100B200002884DF6FF731A400280704721B1028897
:100B300042F48052028004E002884EF6FF731A40AD
:100B400002807047B1F5006F04D1028842F4006260
:100B5000028004E002884FF2FF731A40028070475F
:100B600021B1028842F02002028004E002884FF6A0
:100B7000DF731A40028070470146088B00127047ED
:100B800021B1028842F01002028004E002884FF690
:100B9000EF731A400280704721B9028842F0800248
:100BA000028004E002884FF67F731A40028070478B
:100BB000B1F5804F05D0828B4BF6FF731A408283CC
:100BC00003E0828B42F480428283704770B5024614
:100BD0000024002500230020958A138B1B0445EA7E
:100BE000030626F07F4404EA01068E4201D101206B
:100BF00000E0002070BD10B5014600200023002257
:100C00008B8A0A8B120443EA020424F07F4010BD51
:100C10000CB50246002000230193009300920B0FB5
:100C2000019321F07F41019B1BB1009B1433009382
:100C300003E0090C009B18330093009B1B680B42D8
:100C400001D0012000E000200CBD002221F07F42F5
:100C5000D3438382704730B5024600200023948836
:100C600001F0E06504EA154321F07F41948A0C42CB
:100C70000AD04BB1012008E00054004000127A0075
:100C800040420F00A0860100002030BD002221F06C
:100C90007F42D34383827047DD48006840F0010003
:100CA000DB49086008464068DA490840D84948608E
:100CB00008460068D8490840D549086008460068D9
:100CC00020F4802008600846406820F4FE00486058
:100CD0004FF41F0088607047CD49096821F48031C6
:100CE000CB4A11601146096821F480211160B0F5EA
:100CF000803F03D0B0F5802F0ED106E0C4490968CB
:100D000041F48031C24A116007E0C149096841F4E9
:100D1000A021BF4A116000E000BF00BF704710B5BE
:100D200001460022002300204A11012A02D1B84CBA
:100D3000236806E0022A02D1B54C236A01E0B44CD4
:100D4000636A01F01F02012494401C4201D001207B
:100D500000E0002010BD38B50020009000240025E0
:100D600000BF3120FFF7DBFF05460098401C0090D4
:100D70000098B0F5A06F01D0002DF2D03120FFF720
:100D8000CEFF08B1012400E00024204638BD014612
:100D900000209F4A106820F0F80040EAC10010606F
:100DA00070479E490860704702460020984B58687B
:100DB00020F47C1042EA01031843954B58607047B9
:100DC00096490866704701460020914A506820F015
:100DD00003000843506070478D48406800F00C00E5
:100DE0007047014600208A4A506820F0F00008430E
:100DF0005060704701460020854A506820F4E0604A
:100E000008435060704701460020814A506820F432
:100E1000605040EAC1005060704729B17C4A527A64
:100E200002437B4B5A7204E0794A527A8243784BF0
:100E30005A7270477A490860704701460020744A28
:100E4000506820F440400843506070470021754AC4
:100E500011706F4A82F82010012802D0042808D1AE
:100E600003E001216F4A117004E005216D4A117001
:100E700000E000BF00BF70476B49086070476449DD
:100E8000096A0143624A1162704767494439086040
:100E9000704730B500210022002400235C4D6D68AE
:100EA00005F00C0121B1042905D0082923D105E062
:100EB0005E4D056022E05D4D05601FE0544D6D689C
:100EC00005F47012524D6D6805F48034022505EB6F
:100ED00092421CB9564D554305600BE04C4D6D6870
:100EE00015F4003F03D0524D5543056002E04F4DCD
:100EF0005543056002E04D4D056000BF00BF444D05
:100F00006D6805F0F00109094A4D6B5C0568DD402C
:100F100045603F4D6D6805F4E061090A454D6B5C25
:100F20004568DD4085603A4D6D6805F46051C90A39
:100F3000404D6B5C4568DD40C560354D6D6805F41E
:100F40004041890B3C4D6B5CC568B5FBF3F5056111
:100F500030BD29B12E4A526902432D4B5A6104E03B
:100F60002B4A526982432A4B5A61704729B1284A59
:100F700092690243264B9A6104E0254A92698243B2
:100F8000234B9A61704729B1214AD2690243204B11
:100F9000DA6104E01E4AD26982431D4BDA61704770
:100FA00029B11B4AD2680243194BDA6004E0184A9F
:100FB000D2688243164BDA60704729B1144A12692D
:100FC0000243134B1A6104E0114A12698243104B29
:100FD0001A61704714494039086070470F49C86466
:100FE00070470B49C87170470948406A40F08070EB
:100FF00007494862704701460020054A92680A4244
:1010000001D0012000E0002070470149887270473C
:10101000001002400000FFF8FFFFF6FE0000424211
:10102000D8004242201002408004424200127A005E
:1010300000093D00140000202400002010B50446E3
:10104000BE48844208D101218014FFF7A9FF002186
:10105000A014FFF7A5FF16E0B948844208D101218A
:101060000014FFF7AAFF00212014FFF7A6FF0AE0F3
:10107000B448844207D10121C013FFF79EFF00212D
:10108000E013FFF79AFF10BD10B50022028802F4AA
:1010900041520B884C8823438C882343CC882343BC
:1010A0000C8923434C8923438C892343CC892343D4
:1010B0001A430280838B4FF2FF74234083830B8A91
:1010C000038210BD2DE9F04F85B005460C464FF068
:1010D000000902274FF000084FF0010B0026B2462E
:1010E000A88B4FF240010840A88302202884B5F85D
:1010F0001C90A068022801D100BF38E0A08810B978
:101100004FF0010B01E04FF0020B8D48854200D1FA
:1011100000E000BF6846FFF7BCFEDDF800A0E088F5
:10112000B0F5007F0AD14FEA1A2000EB80004000A2
:10113000A168B0FBF1F0401D86B20BE04FEA4B1006
:10114000BAFBF0F000EB80004000A168B0FBF1F0CA
:10115000401D86B20A20B6FBF0F606F00108A6EBA9
:101160000800C0F34F074FF6FF7000EA0828022F6F
:1011700001DBFF2F02DD02274FF00008E08840EA84
:10118000080038432884A088A1890843618808435F
:101190002188084340F4006040EA0909A5F81C9042
:1011A00005B0BDE8F08F0021018041808180C180C1
:1011B000018141818181C181072101827047002124
:1011C000018041808180C180022181600021818174
:1011D000704721B1028842F04002028004E0028898
:1011E0004FF6BF731A400280704721B1828B42F4E0
:1011F0008062828304E0828B4FF6FF331A40828341
:10120000704730B5002400230C110125A540ABB276
:101210001AB185881D43858002E085889D438580BD
:1012200030BD1AB183880B43838002E083888B43EF
:101230008380704781817047014688897047A1F596
:101240007E42FF3A04D0028842F48072028004E0B9
:1012500002884FF6FF631A400280704721B18288EE
:1012600042F00402828004E082884FF6FB731A4049
:101270008280704702884FF2FF731A400280028812
:101280000A4302807047018841F480510180704711
:1012900021B1028842F40052028004E002884DF637
:1012A000FF731A400280704702460020012901D0D6
:1012B000108B00E0908A70470146088A7047B1F5AC
:1012C000804F04D1028842F48042028004E0028808
:1012D0004BF6FF731A4002807047024600201389C4
:1012E0000B4201D0012000E000207047CA43028178
:1012F0007047F0B50246002000240023002501F0CD
:101300000F070126BE40B4B20B1101269E40B3B2B6
:10131000968806EA03051689264202D00DB10120FF
:1013200000E00020F0BD10B5002201F00F04012301
:10133000A3409AB2D343038110BD000000300140A6
:1013400000380040003C004010B50446FE4884428E
:1013500008D10121C014FFF723FE0021E014FFF79C
:101360001FFEC4E0B4F1804F08D101210846FFF709
:1013700024FE00210120FFF720FEB8E0F34884425C
:1013800008D101210220FFF718FE00210220FFF7FB
:1013900014FEACE0EE48844208D101210420FFF79E
:1013A0000CFE00210420FFF708FEA0E0E94884427B
:1013B00008D101210820FFF700FE00210820FFF7D7
:1013C000FCFD94E0E448844208D101211020FFF79D
:1013D000F4FD00211020FFF7F0FD88E0DF48844293
:1013E00008D101212020FFF7E8FD00212020FFF790
:1013F000E4FD7CE0DA48844208D101214014FFF783
:10140000CFFD00216014FFF7CBFD70E0D54884428A
:1014100009D10121C804FFF7C3FD00214FF40020CA
:10142000FFF7BEFD63E0D048844209D101210805E1
:10143000FFF7B6FD00214FF48010FFF7B1FD56E035
:10144000CA48844209D101214805FFF7A9FD0021BE
:101450004FF40010FFF7A4FD49E0C548844208D1CD
:1014600001214020FFF7A9FD00214020FFF7A5FD45
:101470003DE0C048844208D101218020FFF79DFD56
:1014800000218020FFF799FD31E0BB48844208D15C
:1014900001218015FFF791FD0021A015FFF78DFDBB
:1014A00025E0B648844209D101210804FFF778FD00
:1014B00000214FF48030FFF773FD18E0B0488442FC
:1014C00009D101214804FFF76BFD00214FF40030E2
:1014D000FFF766FD0BE0AB48844208D10121880488
:1014E000FFF75EFD00214FF48020FFF759FD10BD8E
:1014F00000220288944B98420ED0994B98420BD010
:10150000B0F1804F08D0914B984205D0904B984253
:1015100002D0904B984204D14FF68F731A404B88FB
:101520001A438D4B984207D08C4B984204D04FF60B
:10153000FF431A40CB881A4302808B8883850B882F
:101540000385814B98420BD0854B984208D08B4B3A
:10155000984205D08A4B984202D08A4B984201D1DA
:101560000B7A038601238382704770B50024002222
:101570000023058C4FF6FE7635400584028C838867
:10158000048B4FF68F752C40B51E2C400D882C43D4
:10159000751E2A400D892A434D882A436A4DA84268
:1015A0000BD06F4DA84208D0744DA84205D0744DA1
:1015B000A84202D0734DA84213D14FF6F7752A40C6
:1015C0004D892A434FF6FB752A408D882A434FF6F2
:1015D000FF652B404FF6FF552B408D892B43CD895E
:1015E0002B4383800483CD888586028470BD70B5CB
:1015F000002400220023058C4FF6EF763540058449
:10160000028C8388048B48F6FF752C404FF6FF450B
:101610002C400D884FF6FF7606EA05252C434FF641
:10162000DF752A400D8906EA05152A434D8806EA2A
:1016300005152A43444DA84202D0494DA8421DD168
:101640004FF67F752A404D894FF6FF7606EA05155D
:101650002A434FF6BF752A408D8806EA05152A43AE
:101660004FF6FF352B404FF2FF752B408D8906EA70
:1016700085052B43CD8906EA85052B4383800483AA
:10168000CD880587028470BD70B500240022002338
:10169000058C4FF6FF6635400584028C8388848B69
:1016A0004FF68F752C404FF6FC752C400D882C435F
:1016B0004FF6FF552A400D894FF6FF7606EA0525BD
:1016C0002A434D8806EA05252A431F4DA84202D029
:1016D000234DA8421DD14FF2FF752A404D894FF688
:1016E000FF7606EA05252A434FF6FF352A408D8806
:1016F00006EA05252A434EF6FF752B404DF6FF7589
:101700002B408D8906EA05152B43CD8906EA051580
:101710002B4383808483CD888587028470BD70B518
:10172000002200230024058C4EF6FF763540058408
:10173000038C8488828B48F6FF752A404FF6FF455C
:101740002A400D8820E00000002C014000040040E9
:1017500000080040000C0040001000400014004051
:1017600000340140004C0140005001400054014051
:1017700000180040001C00400020004000400140D4
:1017800000440140004801404FF6FF7606EA052577
:101790002A434DF6FF752B400D8906EA05352B438C
:1017A0004D8806EA05352B43FA4DA84202D0FA4D82
:1017B000A84208D14BF6FF752C408D894FF6FF7675
:1017C00006EA85152C4384808283CD88A0F840509A
:1017D000038470BD828B4FF2FF331A408283828B69
:1017E0004FF6FF7303EA01231A4382837047F0B573
:1017F0000C461546002200210026078C4EF6FF7C81
:1018000007EA0C070784828B018C4FF6FF7707EA03
:10181000043640F6FF473A404FF6FF7707EA0527C0
:101820003A434FF6FF7707EA03373A43D94FB842B6
:101830000ED0D94FB8420BD0B0F1804F08D0D74F5F
:10184000B84205D0D64FB84202D0D64FB84206D1E2
:101850004DF6FF77394046F48057394305E047F6A7
:10186000FF57394044F48057394382830184F0BDE7
:10187000828B4FF6F3731A408283828B0A438283F2
:101880007047F0B50C461546002200210026078C53
:101890004FF6FF6C07EA0C070784828B018C4FF62A
:1018A000FF7707EA04264FF60C773A404FF6FF77AA
:1018B00007EA03172F433A43B64FB8420ED0B64F4C
:1018C000B8420BD0B0F1804F08D0B44FB84205D029
:1018D000B34FB84202D0B34FB84206D14FF6FF57CC
:1018E000394046F48077394305E04FF2FF573940DD
:1018F00044F48077394382830184F0BD028B4FF238
:10190000FF331A400283028B4FF6FF7303EA012371
:101910001A4302837047F0B50C4615460022002199
:101920000026078C4FF6EF7C07EA0C070784028B32
:10193000018C4FF6FF7707EA041640F6FF473A405E
:101940004FF6FF7707EA03373A434FF6FF7707EA88
:1019500005273A438F4FB8420ED08F4FB8420BD075
:10196000B0F1804F08D08D4FB84205D08C4FB842AF
:1019700002D08C4FB84206D14FF6DF77394046F09F
:101980001007394305E04FF65F77394044F0100700
:10199000394302830184F0BD028B4FF6F3731A4082
:1019A0000283028B0A4302837047F0B50C4615464A
:1019B00000220021068C4FF6FE773E400684028B03
:1019C000018C4FF60C7632407E1C06EA03162E433D
:1019D0003243704EB0420ED06F4EB0420BD0B0F1D9
:1019E000804F08D06D4EB04205D06D4EB04202D04F
:1019F0006C4EB04206D14FF6FD76314044F0010600
:101A0000314305E04FF6F576314044F001063143AD
:101A100002830184F0BD70B505460C465D488542E1
:101A20000ED05D4885420BD0B5F1804F08D05B48A1
:101A3000854205D05A48854202D05A48854200D195
:101A400000E000BF208850B92389A2886188284619
:101A5000FFF7ABFFE1882846FFF79EFF25E02088CF
:101A600004280AD12389A28861882846FFF753FFFA
:101A7000E1882846FFF742FF17E0208808280AD1AE
:101A80002389A28861882846FFF7FBFEE188284663
:101A9000FFF7EEFE09E02389A28861882846FFF758
:101AA000A6FEE1882846FFF795FE70BD2DE9F041BE
:101AB00005460C4600260127608808B9022600E08A
:101AC0000026A088012801D1022700E001272088F4
:101AD000A0B92389A28861882846FFF766FFE188BC
:101AE0002846FFF759FF23893A4631462846FFF733
:101AF00012FFE1882846FFF701FF13E02389A2883F
:101B000061882846FFF707FFE1882846FFF7F6FEC1
:101B100023893A4631462846FFF747FFE1882846A1
:101B2000FFF73AFFBDE8F0810A884B881A438B889B
:101B30001A43CB881A430B891A434B891A438B8962
:101B40001A43A0F8442070474FF6FF7181800021AE
:101B50000180C18041800172704700210180418075
:101B60008180C180018141818181C18170470021D3
:101B700001804180012181800021C1800181704765
:101B80000021018041808180C1800181418181816A
:101B900070470000002C0140003401400004004068
:101BA00000080040000C004021B1028842F0010210
:101BB000028004E002884FF6FE731A4002807047EC
:101BC00031B1B0F8442042F40042A0F8442005E0CE
:101BD000B0F84420C2F30E02A0F8442070471AB1B6
:101BE00083890B43838102E083898B438381704720
:101BF0008182704741EA0203A0F8483070471AB169
:101C000083890B43838102E083898B4383817047FF
:101C100001894FF6F8721140018170470A46002190
:101C200001894FF68F73194011430181704730B518
:101C300004460D4629462046FFF7F0FF208940F074
:101C40000700208130BD2DE9F04104460D461646BF
:101C50001F46602D06D13B46012231462046FFF744
:101C60005AFE05E03B46012231462046FFF79DFE25
:101C700029462046FFF7D2FF208940F00700208147
:101C8000BDE8F08130B50C4600210189C9B24FF69C
:101C9000FF7505EA0325154325432943018130BD1E
:101CA0002DE9F04105460E46174698460024434666
:101CB0003A4631462846FFF7E5FF2C894FF6F87083
:101CC000044044F007044FF68F70044044F0700461
:101CD0002C81BDE8F081F0B504460D4616461F463E
:101CE0003B46324629462046FFF7CCFF208940F488
:101CF00080402081F0BD0185828270470A46002124
:101D000001884FF68F731940114301807047F0B579
:101D10000C4615461E460021002200230189028B35
:101D2000038C4FF6F877394021434FF6FC473A4091
:101D300040F201173A434FF6DD773B404FF6FF770D
:101D400007EA06172F433B43018102830384F0BD5A
:101D50000A460021018B4FF68F731940114301830E
:101D600070470A460021018B48F6FF7319404FF671
:101D7000FF7303EA02231943018370470A460021D7
:101D8000818B4FF68F7319401143818370470A4648
:101D90000021818B48F6FF7319404FF6FF7303EA69
:101DA000022319438183704721B1028842F08002E7
:101DB000028004E002884FF67F731A400280704769
:101DC00021B1828842F00402828004E082884FF6CA
:101DD000FB731A408280704721B1828842F008026A
:101DE000828004E082884FF6F7731A408280704741
:101DF00021B1828842F00102828004E082884FF69D
:101E0000FE731A40828070470A460021018B4FF60C
:101E1000F77319401143018370470A460021018B73
:101E20004FF2FF7319404FF6FF7303EA0223194381
:101E3000018370470A460021818B4FF6F7731940E2
:101E40001143818370470A460021818B4FF2FF7353
:101E500019404FF6FF7303EA022319438183704749
:101E60000A460021018B4FF6FB7319401143018391
:101E700070470A460021018B4FF6FF3319404FF699
:101E8000FF7303EA02231943018370470A460021C6
:101E9000818B4FF6FB7319401143818370470A46CB
:101EA0000021818B4FF6FF3319404FF6FF7303EA91
:101EB00002231943818370470A460021018B4FF6A4
:101EC0007F7319401143018370470A460021018B3B
:101ED000C1F30E014FF6FF7303EA02231943018396
:101EE00070470A460021818B4FF67F7319401143DA
:101EF000818370470A460021818BC1F30E014FF6A2
:101F0000FF7303EA02231943818370470A460021C5
:101F1000018C4FF6FD7319401143018470470A4646
:101F20000021018C4FF6F77319401143018470476B
:101F30000A460021018C4FF6DF7319404FF6FF73FC
:101F400003EA02131943018470470A460021018CF9
:101F50004FF67F7319404FF6FF7303EA02131943DC
:101F6000018470470A460021018C4FF6FF53194047
:101F70004FF6FF7303EA02231943018470470A46B0
:101F80000021018C4FF2FF7319404FF6FF7303EAF3
:101F900002231943018470470A460021018C4DF643
:101FA000FF7319404FF6FF7303EA023319430184AC
:101FB000704730B5002301248C40A3B2048C9C43AD
:101FC0000484048C02FA01F5ADB22C43048430BDC4
:101FD00030B5002304248C40A3B2048C9C430484B9
:101FE000048C02FA01F5ADB22C43048430BD70B507
:101FF0000346002000241846183001258D40ACB25D
:102000001D8CA5431D8409B1082909D100EB61008D
:10201000056825F0700505600568154305600EE04C
:102020000D1FC5F34E052844056825F4E0450560FD
:1020300005684FF6FF7606EA02263543056070BD57
:1020400021B1028842F00202028004E002884FF6C9
:10205000FD731A400280704721B1028842F00402E9
:10206000028004E002884FF6FB731A40028070473A
:1020700021B1828842F08002828004E082884FF69B
:102080007F731A408280704702884FF6F7731A40B8
:10209000028002880A430280704782884FF68F735D
:1020A0001A40828082880A438280704702894FF6F4
:1020B000F8731A40028102890A430281704702893B
:1020C0004FF67F731A40028102890A4302817047EA
:1020D000818470478185704781867047018770478A
:1020E00081877047A0F84010704702884FF6FF4381
:1020F0001A40028002880A43028070470146888E97
:1021000070470146088F70470146888F7047014627
:10211000B1F8400070470146888C70470146088D31
:10212000704702460020138A0B4201D0012000E0D4
:1021300000207047CA430282704730B50246002033
:1021400000230024158A05EA0103958905EA0104A4
:1021500013B10CB1012000E0002030BDCA4302825F
:102160007047000010B50446FB48844209D10121A4
:102170008803FEF715FF00214FF48040FEF710FFA3
:1021800032E0F648844209D101214804FEF715FFE8
:1021900000214FF40030FEF710FF25E0F0488442A4
:1021A00009D101218804FEF708FF00214FF48020A7
:1021B000FEF703FF18E0EB48844209D10121C8046F
:1021C000FEF7FBFE00214FF40020FEF7F6FE0BE0C9
:1021D000E548844208D101210805FEF7EEFE002102
:1021E0004FF48010FEF7E9FE10BD2DE9F04786B0F0
:1021F00005460E460024A24600BFA1460027B0892E
:1022000000B100BF2F462C8A4CF6FF700440F088C6
:1022100004432C82AC894EF6F3100440B088318917
:102220000843718908430443AC81AC8A4FF6FF40F0
:102230000440B0890443AC8201A8FEF72AFEC648D8
:10224000874202D1DDF810A001E0DDF80CA0A889DA
:1022500010F4004F08D00AEBCA0000EB0A103168F6
:102260004900B0FBF1F807E00AEBCA0000EB0A10E6
:1022700031688900B0FBF1F86420B8FBF0F004018C
:102280002009642101FB1089A88910F4004F08D0AF
:10229000322000EBC900B0FBF1F000F0070004436E
:1022A00008E0322000EB09106421B0FBF1F000F0EF
:1022B0000F0004432C8106B0BDE8F0874FF416519F
:1022C000016000218180C18001810C2141810021B8
:1022D0008181704710B502460020108A4FF2FF033B
:1022E00018400B884C8823438C882343CC88234395
:1022F0001843108210BD0021018041808180C1807F
:10230000704721B1828942F40052828104E08289BF
:102310004DF6FF731A4082817047F0B503460024E2
:10232000002600250020A1F510676A3F00D100BFFC
:102330001846C1F3421401F01F06012707FA06F5FB
:10234000012C01D10C3004E0022C01D1103000E04E
:1023500014301AB107682F43076002E00768AF43E3
:102360000760F0BD1AB1838A0B43838202E0838A3F
:102370008B4383827047028A4FF6F0731A400282C1
:10238000028A0A430282704782894FF2FF731A4021
:10239000828182890A438281704721B1828942F019
:1023A0000202828104E082894FF6FD731A40828125
:1023B0007047028A4FF6DF731A400282028A0A438C
:1023C0000282704721B1028A42F48042028204E014
:1023D000028A4BF6FF731A4002827047C1F308026B
:1023E0008280704701468888C0F308007047818961
:1023F00041F0010181817047028BD2B20283028BCE
:1024000042EA012202837047028B02F47F42028378
:10241000028B0A430283704721B1828A42F0200274
:10242000828204E0828A4FF6DF731A40828270470C
:1024300021B1828A42F01002828204E0828A4FF641
:10244000EF731A408282704721B1828A42F00802FB
:10245000828204E0828A4FF6F7731A4082827047C4
:1024600021B1828942F40042828103E08289C2F371
:102470000E028281704721B1828A42F40062828218
:1024800004E0828A4FF2FF731A4082827047828A88
:102490004FF6FB731A408282828A0A438282704717
:1024A00021B1828A42F00202828204E0828A4FF6DF
:1024B000FD731A408282704702460020B1F5007F0A
:1024C00000D100BF13880B4201D0012000E00020A2
:1024D000704701F40072B2F5007F00D100BFCA431B
:1024E0000280704770B502460024002300250020BA
:1024F000A1F510666A3E00D100BFC1F3421501F09C
:102500001F03012606FA03F3012D02D196893340F9
:1025100006E0022D02D1168A334001E0968A33404C
:102520000C12012606FA04F41688344013B10CB1DB
:10253000012000E0002070BD10B500220023A1F5AD
:1025400010646A3C00D100BF0A1201249440A3B277
:10255000DC43048010BD000000380140004400400E
:1025600000480040004C0040005000401CB502F004
:1025700089FA02F073FA01F004F800F087FF4FF4D3
:10258000165001F066FF01F047FF00F07FFF00F0FA
:1025900066F901F0AFF90920304988600B20C86066
:1025A0001420086101204860002048611120086063
:1025B000084640690969294CCDE90010E368A26822
:1025C0006168206801F026FB082001230222002117
:1025D0000090084601F0C5F80D220021084601F0E0
:1025E0001DF90E220021122001F018F90F220021FE
:1025F000242001F013F910220021362001F00EF9F9
:1026000011220021482001F009F9122200215A204C
:1026100001F004F900F063FA1149087008460078E7
:10262000012803D10FA002F037FE02E013A002F050
:1026300033FE1DA002F030FE0FE0012080F3108871
:1026400000BF002080F3108800BF10211B48FEF758
:1026500080F802F014F802F00DF9EEE7840800208B
:10266000280000200D0A2020204E5246D3EB4D4377
:1026700055C1ACBDD3B3C9B9A60D0A000D0A2020BF
:1026800020D5FDD4DABCECB2E24E5246D3EB4D433A
:1026900055CAC7B7F1D5FDB3A3C1ACBDD3A1A3A1A2
:1026A000A3A1A30D0A00000057656C636F6D652040
:1026B000746F20757365210D0A0000000018014039
:1026C00070475948006810F0010F00D000BE00BFED
:1026D000FEE700BFFEE700BFFEE700BFFEE7704772
:1026E00070477047704710B51020FDF70DFF48B1D7
:1026F00001210846FEF747FC00F06CFA10B14BA030
:1027000002F0CAFD1020FDF710FF10BD10B58CB00F
:1027100001218807FFF711FD002870D046480068A6
:10272000401C4549086008460068322875D1684653
:1027300001F0A4FA1822694606A802F02FFA022036
:102740003E490870002048700A21069890FBF1F07D
:102750003A4988700A21069890FBF1F201FB1200B9
:102760003649C8700A21079890FBF1F03349087187
:102770000A21079890FBF1F201FB12002F494871E2
:102780000A21089890FBF1F02C4988710A210898D9
:1027900090FBF1F201FB12002849C8710A21099847
:1027A00090FBF1F0254908720A21099890FBF1F29B
:1027B00001FB1200214948720A210A9890FBF1F0AE
:1027C0001E4988720A210A9890FBF1F201FB12005F
:1027D0001A49C8720A210B9890FBF1F01749087347
:1027E0000A210B9890FBF1F201FB12001349487388
:1027F00000208873C87310490860002408E010E0C6
:102800000BE00E48015D0EA002F046FD601CC4B254
:10281000102CF6DB0BA002F03FFD01218807FFF72B
:102820009DFC0CB010BD0000F0ED00E00A20756EBC
:102830006C6F636B200A00002C0000202C07002026
:10284000256400006D61726B210A000001B502E091
:102850000098401E009000980028F9D108BD00B5EE
:1028600087B001214FF48470FEF780FB01218803BB
:10287000FEF789FB4FF46040ADF8040001208DF8AD
:10288000060018208DF8070001A9FE48FDF7B6FEE6
:10289000C020ADF8040001208DF8060010208DF84E
:1028A000070001A9F848FDF7A9FE4FF48070ADF8C4
:1028B000040001208DF8060048208DF8070001A9CA
:1028C000F148FDF79BFE8021EF48FDF742FF002015
:1028D000ADF808004FF48270ADF80A000020ADF8A2
:1028E0000C00ADF80E00ADF810004FF40070ADF81C
:1028F00012001020ADF814000020ADF816000720DB
:10290000ADF8180002A9E148FEF7BEFB0121DF483F
:10291000FEF75FFC07B000BD10B5044600BF022102
:10292000DA48FEF7DAFC0028F9D02146D748FEF74E
:1029300081FC00BF0121D548FEF7CFFC0028F9D06B
:10294000D248FEF779FCC0B210BD70B505460C4602
:102950004021CD48FDF7FFFE8021CB48FDF7FBFE6F
:102960002846FFF7D9FF06462046FFF7D5FF80210E
:10297000C548FDF7EEFE304670BD70B504464021F7
:10298000C148FDF7E8FE8021BF48FDF7E4FE204680
:10299000FFF7C2FFFF20FFF7BFFF05468021BA48BF
:1029A000FDF7D7FE284670BD2DE9F04107460D46DC
:1029B00016464021B448FDF7CEFE8021B248FDF70F
:1029C000CAFE3846FFF7A8FF8046002405E0FF2036
:1029D000FFF7A2FF2855601CC4B2B442F7DB802188
:1029E000A948FDF7B6FE4046BDE8F0812DE9F0416B
:1029F00007460C4615464021A348FDF7ACFE802152
:102A0000A148FDF7A8FE3846FFF786FF804600265E
:102A100005E014F8010BFFF77FFF701CC6B2AE4251
:102A2000F7DB80219848FDF794FE4046BDE8F08131
:102A300010B540219448FDF78EFE052294492A20C6
:102A4000FFF7D4FF01212120FFF77FFF0121222082
:102A5000FFF77BFF28212520FFF777FF0421312096
:102A6000FFF773FF0F212620FFF76FFF0F212020B4
:102A7000FFF76BFF40218448FDF76BFE10BD10B5DA
:102A800040218148FDF767FE052282493020FFF78B
:102A9000ADFF05227E492A20FFF7A8FF0121212052
:102AA000FFF753FF01212220FFF74FFF1A212420B7
:102AB000FFF74BFF28212520FFF747FF0F21262096
:102AC000FFF743FF0E212020FFF73FFF40216E4814
:102AD000FDF73FFE4FF6FF70FFF7B8FE10BD1FB5C4
:102AE0006DA103C9CDE90201052202A93020FFF73B
:102AF0007DFF052269461020FFF756FF002406E0FF
:102B00001DF80400C22800D003E0601CC4B2052CEC
:102B1000F6DB00BF052C02D1012004B010BD00205F
:102B2000FBE770B5054640215748FDF714FE042227
:102B30002946A020FFF75AFF40215348FDF709FE20
:102B400000BF4FF480715048FDF7E9FD0028F8D12F
:102B50000720FFF712FF044621462720FFF7F5FE66
:102B6000FF21E120FFF7F1FE14F0100F01D010203B
:102B700070BD14F0200F01D02020F9E70020F7E706
:102B800070B5054640214048FDF7E3FD00BF4FF416
:102B900080713D48FDF7C3FD0028F8D140213A4837
:102BA000FDF7D9FD0720FFF7E8FE04462146272060
:102BB000FFF7CBFE14F0400F0AD004222946612013
:102BC000FFF7F2FEFF21E220FFF7BFFE402070BDBD
:102BD0000020FCE72DE9F04FDFB0314B0FCB40ACCC
:102BE0000FC42C222FA109A801F0D8FF0DF12E0B44
:102BF0000DF12F090CA80890401C0790451C10A847
:102C00000690242003F09CF80746242003F098F84F
:102C1000804614A92E4801F0B1F95C9801F066FFD6
:102C2000002405E009A8005D54A90855601CC4B241
:102C30000A2CF7DB01208BF8000001F04DFF89F82A
:102C400000000021089801700798017099F80000B1
:102C50005E90684601F012F81822694657A801F004
:102C60009DFF1CA0579902F017FB1CA0589902F079
:102C700013FB1CA0599902F00FFB1CA05A9902F0FB
:102C80000BFB37E0000C0140002001400038004001
:102C90003500002030000020C2C2C2C2C2000000C5
:102CA000AC5D000801030005000504010405007B7C
:102CB00000000200010700050001010304050000F7
:102CC0000000000000000000000000000000000004
:102CD0002C07002032302564C4EA20002564D4C2C9
:102CE000200000002564C8D5200000002564CAB17A
:102CF00020000000FDA05B9902F0CEFAFDA05C99D7
:102D000002F0CAFA022028704FF47A71579890FBAB
:102D1000F1F201FB1200642190FBF1F0687057980A
:102D200090FBF1F201FB12000A2190FBF1F0A87078
:102D3000579890FBF1F201FB1200E870589890FB55
:102D4000F1F02871589890FBF1F201FB12006871C4
:102D5000599890FBF1F0A871599890FBF1F201FBA2
:102D60001200E8715A9890FBF1F028725A9890FB83
:102D7000F1F201FB120068725B9890FBF1F0A8720F
:102D80005B9890FBF1F201FB1200E8725C9890FBFB
:102D9000F1F028735C9890FBF1F201FB120068736C
:102DA00000240DE009A904F10A00085C50A90855A7
:102DB00009A904F11A00085C4CA90855601CC4B2AA
:102DC000102CEFDB48AA50A914A801F08CF944AAF2
:102DD0004CA914A801F087F9FFF751FE642000F018
:102DE00091FB54A8FFF79DFE5D9055A8FFF799FE53
:102DF0005D9056A8FFF795FE5D9057A8FFF791FEEE
:102E00005D9048A8FFF78DFE5D9049A8FFF789FE09
:102E10005D904AA8FFF785FE5D904BA8FFF781FE05
:102E20005D9044A8FFF77DFE5D9045A8FFF779FE11
:102E30005D9046A8FFF775FE5D9047A8FFF771FE0D
:102E40005D90142000F05EFBFFF7F2FD1E2000F005
:102E500059FB54A8FFF794FE5D9055A8FFF790FE2C
:102E60005D9056A8FFF78CFE5D9057A8FFF788FE8F
:102E70005D9048A8FFF784FE5D9049A8FFF780FEAB
:102E80005D904AA8FFF77CFE5D904BA8FFF778FEA7
:102E90005D9044A8FFF774FE5D9045A8FFF770FEB3
:102EA0005D9046A8FFF76CFE5D9047A8FFF768FEAF
:102EB0005D90684600F0E2FE1822694657A801F0CE
:102EC0006DFE48AA48A914A801F0B0F944AA44A983
:102ED00014A801F0ABF9002405E054A8005D09A98D
:102EE0000855601CC4B20A2CF7DB00240CE048A88B
:102EF000015D04F10A0009AA115444A8015D04F11E
:102F00001A001154601CC4B2102CF0DB7BA002F03C
:102F1000C3F928784FF47A714843697801EBC1020C
:102F200002EB011100EB8100A97801EB810100EBBC
:102F30004100E978084478616879297901EB8101D9
:102F400000EB41003861E879A97901EB810100EBE0
:102F50004100F860687A297A01EB810100EB4100B9
:102F6000B860E87AA97A01EB810100EB4100786052
:102F7000687B297B01EB810100EB410038605A98A6
:102F8000C8F808005C98C8F800005B98C8F804000E
:102F90005998C8F80C005898C8F81000579800F5D0
:102FA000FA60C8F81400404601F0A8FD03903846C6
:102FB00001F0A4FD0290039902F089FECDE904011D
:102FC00001F022FE824651464FA002F065F9BAF1A7
:102FD000000001DB014600E041423C2972DC9BF825
:102FE000000001286FD1089801785E98401C81424A
:102FF000F8D1684600F042FE1822694657A801F051
:10300000CDFD4FF47A71579890FBF1F028705798E6
:1030100090FBF1F201FB1200642190FBF1F068706B
:10302000579890FBF1F201FB12000A2190FBF1F09E
:10303000A870579890FBF1F201FB1200E8705898C5
:1030400090FBF1F02871589890FBF1F201FB12000F
:103050006871599890FBF1F0A871599890FBF1F2C2
:1030600001FB1200E8715A9890FBF1F028725A980F
:1030700090FBF1F201FB120068725B9890FBF1F09B
:10308000A8725B9890FBF1F201FB1200E8725C9869
:1030900090FBF1F028735C9890FBF1F201FB1200B9
:1030A000687300208BF8000099F80000401CC1B242
:1030B00089F800100898017001F00EFD89F80000F1
:1030C00000240FE0B7E1AEE109A904F10A00085CB1
:1030D00050A9085509A904F11A00085C4CA9085523
:1030E000601CC4B2102CEFDB00241CE02564B7D6B2
:1030F000200000002564C3EB200A0000D6A1D6D82A
:10310000BDA8CDEAB3C90A00256420646966665F7C
:1031100074696D65200A000054A8015DC7A002F023
:10312000BBF8601CC4B20A2CF6DBC5A002F0B4F8F0
:10313000002406E050A8015DC0A002F0ADF8601CBC
:10314000C4B2102CF6DBBEA002F0A6F8002406E004
:103150004CA8015DB9A002F09FF8601CC4B2102C0D
:10316000F6DBB7A002F098F848AA50A914A800F01E
:10317000BAFF44AA4CA914A800F0B5FFFFF77FFCE2
:10318000962000F0BFF954A8FFF7CBFC5D9055A83E
:10319000FFF7C7FC5D9056A8FFF7C3FC5D9057A8EA
:1031A000FFF7BFFC5D9048A8FFF7BBFC5D9049A806
:1031B000FFF7B7FC5D904AA8FFF7B3FC5D904BA802
:1031C000FFF7AFFC5D9044A8FFF7ABFC5D9045A80E
:1031D000FFF7A7FC5D9046A8FFF7A3FC5D9047A80A
:1031E000FFF79FFC5D9097A002F056F8002455E091
:1031F00000BF00F0F1FD0028FBD000F078FEC6B261
:103200000B2E47D2DFE806F03C060C12181E242ACB
:10321000303643009048065590A002F03DF83AE061
:103220008D4806558EA002F037F834E08A480655DE
:103230008CA002F031F82EE0874806558AA002F0F3
:103240002BF828E08448065588A002F025F822E0F3
:103250008148065586A002F01FF81CE07E480655FE
:1032600084A002F019F816E07B48065582A002F00F
:1032700013F810E07848065580A002F00DF80AE037
:103280000020754908557EA002F006F803E0A01E54
:10329000C4B200E000BF00BF601CC4B20E2CA7D1B6
:1032A00078A001F0F9FF00240AE06B48015D63A0FB
:1032B00001F0F2FF6848015D06980155601CC4B238
:1032C0000E2CF2DB5EA001F0E7FF684600F0D6FCB2
:1032D0001822694657A801F061FC022028704FF4BB
:1032E0007A71579890FBF1F201FB1200642190FB78
:1032F000F1F06870579890FBF1F201FB12000A217F
:1033000090FBF1F0A870579890FBF1F201FB1200CE
:10331000E870589890FBF1F02871589890FBF1F202
:1033200001FB12006871599890FBF1F0A87159984F
:1033300090FBF1F201FB1200E8715A9890FBF1F05A
:1033400028725A9890FBF1F201FB120068725B98A8
:1033500090FBF1F0A8725B9890FBF1F201FB120078
:10336000E8725C9890FBF1F028735C9890FBF1F2A6
:1033700001FB1200687300240DE009A904F10A00A2
:10338000085C50A9085509A904F11A00085C4CA969
:103390000855601CC4B2102CEFDB48AA50A914A831
:1033A00000F0A1FE44AA4CA914A800F09CFEFFF76F
:1033B00066FB54A8FFF7B5FB5D9055A8FFF7B1FB7E
:1033C0005D9056A8FFF7ADFB5D9057A8FFF7A9FBEE
:1033D0005D9048A8FFF7A5FB5D9049A8FFF7A1FB0A
:1033E0005D904AA8FFF79DFB5D904BA8FFF799FB06
:1033F0005D9044A8FFF795FB5D9045A8FFF791FB12
:103400005D9046A8FFF78DFB5D9047A8FFF789FB0D
:103410005D90384602F06CFC404602F069FC0120E9
:103420005FB0BDE8F08F384602F062FC404602F023
:103430005FFC0020F4E70020F2E7000025640000B4
:103440000A0000007368616B6568616E6420696ED4
:103450006974210A000000002C07002031000000E0
:10346000320000003300000034000000350000008E
:10347000360000003700000038000000390000006E
:10348000300000006B65793A0000000010B56FF065
:103490000400FCF7A7FF2D4800682D49B0FBF1F0B0
:1034A0002C4908700846007800EB4001C1EBC010C1
:1034B0004FF6FF7101EAC0002749088010BD0146A0
:1034C000244A12784A434FF0E0235A6100229A615D
:1034D0001A46126942F001021A6100BF4FF0E02261
:1034E000106910F0010F02D010F4803FF6D04FF0B9
:1034F000E022126922F001024FF0E0231A6100225B
:103500009A6170470146144A12884A434FF0E023FB
:103510005A6100229A611A46126942F001021A6148
:1035200000BF4FF0E022106910F0010F02D010F43C
:10353000803FF6D04FF0E022126922F001024FF0F6
:10354000E0231A6100229A61704700000000002009
:1035500000127A00420000204400002008B54FF419
:10356000C060FCF7EFFE0A208DF8000001208DF806
:1035700001008DF802008DF803006846FCF7E7FEB5
:1035800008BD0EB501214120FDF7F0FCFFF7E6FF75
:103590001020ADF8080048208DF80B0002A90B4858
:1035A000FDF72CF804210846FDF73CF910200090A7
:1035B00000208DF804000C208DF8050001208DF806
:1035C00006006846FCF73AFF0EBD000000180140F7
:1035D00070B504460E4626B12021FE48FDF7B9F825
:1035E00003E02021FB48FDF7B6F80821F948FDF774
:1035F000B2F8002517E04021F648FDF7ACF814F0CA
:10360000800F04D08021F348FDF7A3F803E0802168
:10361000F048FDF7A0F84021EE48FDF79AF8600663
:10362000040E681CC5B2082DE5DB0821E948FDF74A
:1036300090F82021E748FDF78CF870BD70B504467E
:103640000D4605F1B001C8B20021FFF7C1FF1021FE
:1036500041EA14100021FFF7BBFF04F00F0141F015
:1036600001000021FFF7B4FF70BD10B500218D20CF
:10367000FFF7AEFF00211420FFF7AAFF0021AF20C3
:10368000FFF7A6FF10BD10B500218D20FFF7A0FFAA
:1036900000211020FFF79CFF0021AE20FFF798FFCC
:1036A00010BD70B5002419E004F1B001C8B20021CA
:1036B000FFF78EFF00210220FFF78AFF0021102074
:1036C000FFF786FF002505E001210020FFF780FFBE
:1036D000681CC5B2802DF7DB601CC4B2082CE3DB8C
:1036E00070BD2DE9F04107460E46904600250024A6
:1036F000A8F12000C5B27F2F02DD0027B01CC6B2A2
:1037000031463846FFF79AFF002408E004EB051124
:10371000B14A505C0121FFF75BFF601CC4B2082C6A
:10372000F4DB701CC1B23846FFF788FF002409E0C3
:1037300004EB05110831A84A505C0121FFF748FF4E
:10374000601CC4B2082CF3DBBDE8F08110B5024662
:10375000012000E050430B00A1F10104E1B2F9D1D6
:1037600010BD2DE9FF5F074691461D460E9E4FF0A6
:10377000000A002433E0281B401EC1B20A20FFF7D4
:10378000E5FFB9FBF0F00A21B0FBF1F201FB1208F2
:10379000BAF1000F13D1681EA04210DDB8F1000F7E
:1037A0000BD1B34606EBDB71491001FB0471C8B2C3
:1037B00020220199FFF795FF0FE04FF0010AB34671
:1037C00006EBDB71491001FB0471C8B208F130014E
:1037D000CAB20199FFF785FF00BF601CC4B2AC42BA
:1037E000C9DBBDE8FF9F2DE9F04104460F461546B1
:1037F00000260EE0AA5D39462046FFF772FF04F16D
:103800000800C4B2782C02DD0024B81CC7B2701CBA
:10381000C6B2A85D0028EDD1BDE8F0812DE9F041E8
:1038200080460E461546002731464046FFF706FF04
:1038300000240AE0694A02EB8511085D0121FFF7C7
:10384000C7FE781CC7B2601CC4B2102CF2DB701C1F
:10385000C1B24046FFF7F2FE00240CE06900491CAB
:103860005E4A02EB4111085D0121FFF7B1FE781CB1
:10387000C7B2601CC4B2102CF0DBBDE8F0812DE9AA
:10388000F05F06460F4690461C46DDF828A04FF034
:10389000000BE11704EB5171C910B4EBC10106D163
:1038A0002046E11704EB5171C1F3C70506E020463D
:1038B000E11704EB5171C910491CCDB23D4615E02A
:1038C00029463046FFF7BAFEB1460BE059460BF1E8
:1038D000010B1AF801000121FFF77AFE09F101003E
:1038E00000F0FF09C145F1DB681CC5B2A542E7DB6A
:1038F000BDE8F09F08B501214FF49470FDF736FB49
:103900004FF4FC70ADF8000010208DF80300032088
:103910008DF8020069462F48FCF770FE4FF4FC71E9
:103920002C48FCF716FF0320ADF8000069462C4830
:10393000FCF764FE03212A48FCF70BFF4FF400401C
:10394000ADF8000069462748FCF758FE4FF40041E7
:103950002448FCF7FEFE10211E48FCF7FAFE642006
:10396000FFF7D0FD10211B48FCF7F5FE6420FFF7A0
:10397000C9FD10211748FCF7ECFE0021AE20FFF72F
:1039800027FE00210220FFF723FE00211020FFF771
:103990001FFE00214020FFF71BFE00218120FFF7C2
:1039A00017FE0021CF20FFF713FE0021A120FFF713
:1039B0000FFE0021C820FFF70BFE0021A620FFF715
:1039C00007FE0021A820FFF703FE00213F20FFF79C
:1039D000FFFD09E000140140E45F000846000020FC
:1039E000001001400020014000218120FFF7F0FD80
:1039F0000021FF20FFF7ECFD0021D320FFF7E8FDB9
:103A000000210846FFF7E4FD0021D520FFF7E0FD87
:103A100000218020FFF7DCFD0021D920FFF7D8FD31
:103A20000021F120FFF7D4FD0021DA20FFF7D0FDBF
:103A300000211220FFF7CCFD0021DB20FFF7C8FD9D
:103A400000214020FFF7C4FD00212020FFF7C0FD2A
:103A500000210220FFF7BCFD00218D20FFF7B8FDFB
:103A600000211420FFF7B4FD0021A420FFF7B0FDD2
:103A70000021A620FFF7ACFD0021AF20FFF7A8FD35
:103A80000021AF20FFF7A4FDFFF70BFE0021084641
:103A9000FFF7D4FD08BD000008B501210820FDF79F
:103AA00065FA01214805FDF76EFAC020ADF8000067
:103AB00003208DF802001C208DF8030069468B4816
:103AC000FCF79CFD08BD1FB50020ADF804004BF6C7
:103AD000FF70ADF806000A20ADF808004FF48060D2
:103AE000ADF80A000001ADF80C008148009069466D
:103AF0008048FCF7E8FE01217E48FCF762FF1FBD0D
:103B000070B504460D4600BF4FF400317948FDF70B
:103B10007FF80028F8D101217648FCF776FF00BF36
:103B200075497448FDF752F80028F9D00022A22107
:103B30007048FCF7C0FF00BF70496E48FDF746F8BB
:103B40000028F9D021466B48FCF7AFFF00BF6B4956
:103B5000891C6848FDF73AF80028F8D029466548DE
:103B6000FCF7A3FF01216348FCF75BFF70BD70B554
:103B7000044601215F48FCF748FF00BF5E495D48ED
:103B8000FDF724F80028F9D00022A2215948FCF7BB
:103B900092FF00BF59495748FDF718F80028F9D09F
:103BA00021465448FCF781FF00BF5449891C514805
:103BB000FDF70CF80028F8D001214E48FCF725FF4E
:103BC00000BF4D494B48FDF701F80028F9D001220C
:103BD000A3214848FCF76FFF00BF4749491C4548EF
:103BE000FCF7F4FF0028F8D000BF43493F314148BB
:103BF000FCF7ECFF0028F8D03E48FCF758FF0546DC
:103C000000213C48FCF719FF01213A48FCF709FF65
:103C1000284670BD2DE9F04704460D4616461F465E
:103C2000DDE90889FFF738FFFFF74DFF002108465F
:103C3000FFF766FF00210120FFF762FF09F0FF0197
:103C40000220FFF75DFF08F0FF010320FFF758FF98
:103C5000F9B20420FFF754FFF1B20520FFF750FF3F
:103C6000E9B20720FFF74CFFE1B20820FFF748FF59
:103C700000210846FFF744FFBDE8F08730B587B064
:103C800005460220FFF773FF044604F00F00C4F35B
:103C9000021101EB810100EB410406940320FFF7C0
:103CA00066FF044604F07F0405940420FFF75FFFDD
:103CB000044604F03F0404940520FFF758FF04462F
:103CC00004F03F0403940720FFF751FF044604F07B
:103CD0001F0402940820FFF74AFF044601941822AB
:103CE00001A9284600F05AFF07B030BD000C014082
:103CF000801A060000540040010003008200070003
:103D000008B501214020FDF731F948208DF8030066
:103D10004FF47060ADF8000001208DF80200694694
:103D20007C48FCF76BFC08BD70B504460D4629467F
:103D30002046FCF7F4FC58B90120FFF7E3FB2946C5
:103D40002046FCF7ECFC08B9002070BD0120FCE720
:103D50000120FAE770B504460D4629462046FCF7D7
:103D6000DEFC58B96420FFF7CDFB29462046FCF75E
:103D7000D6FC08B9002070BD0120FCE70120FAE75D
:103D800008B501210802FDF7F1F84FF46060ADF8C5
:103D9000000001208DF8020010208DF80300694614
:103DA0005C48FCF72BFC4FF47040ADF8000001209C
:103DB0008DF8020028208DF8030069465548FCF76D
:103DC0001DFC4FF460615348FCF7C3FC4FF2FF1138
:103DD0005048FCF7C0FC08BD10B5FFF7D1FF4FF409
:103DE00060614C48FCF7BEFC4A48FCF7A1FC10F4AB
:103DF000704F04D00A20FFF785FB012010BD002082
:103E0000FCE710B50D244FF400714248FCF7A1FC0B
:103E10004FF440613F48FCF79EFC3E48FCF788FCAD
:103E200000F47040B0F5805F09D0B0F5005F08D0B5
:103E3000B0F5804F07D0B0F5004F08D105E0002461
:103E400006E0072404E0042402E0012400E000BFAF
:103E500000BF4FF480612F48FCF77BFC4FF42061DA
:103E60002C48FCF778FC2B48FCF762FC00F470400F
:103E7000B0F5005F06D0B0F5804F05D0B0F5004F2B
:103E800006D103E0082404E0052402E0022400E057
:103E900000BF00BF4FF400611E48FCF75AFC4FF40E
:103EA000C0611C48FCF757FC1A48FCF741FC00F4C1
:103EB0007040B0F5805F09D0B0F5005F08D0B0F574
:103EC000804F07D0B0F5004F08D105E00A2406E086
:103ED000092404E0062402E0032400E000BF00BF40
:103EE00000BFFFF779FF0028FBD1E0B210BD10B58D
:103EF000FFF746FFFFF770FF50B11E20FFF702FBF0
:103F0000FFF76AFF10B1FFF77CFF0446204610BDA3
:103F10000020FCE700180140417842794270427A63
:103F20004271427B427241738178827A82708172DF
:103F30008179827B82718173C17BC27AC273C279BB
:103F4000C272C278C271C1707047417B427A4273BB
:103F500042794272427842714170817B82798273E8
:103F60008171817A827882728170C178C279C270DF
:103F7000C27AC271C27BC272C1737047F8B504467F
:103F8000002314E014F8235001F8015B9D006D1C20
:103F9000655D01F8015B9D00AD1C655D01F8015B8D
:103FA0009D00ED1C655D01F8015B5D1CEBB2042B0F
:103FB000E8DB081F002392E010F8016BFB4DAD5DBC
:103FC0008DF8035010F8016BF84DAD5D8DF8005081
:103FD00010F8016BF54DAD5D8DF8015010F8016BD7
:103FE000F24DAD5D8DF802509DF80050F04EF65C3C
:103FF00075408DF80050A1F1100212F8015B9DF898
:104000000060754001F8015B12F8015B9DF80160EA
:10401000754001F8015B12F8015B9DF80260754084
:1040200001F8015B12F8015B9DF80360754001F82F
:10403000015B10F8015B12F8017B7D4001F8015B28
:1040400010F8015B12F8017B7D4001F8015B10F86C
:10405000015B12F8017B7D4001F8015B10F8015B08
:1040600012F8017B7D4001F8015B10F8015B12F84A
:10407000017B7D4001F8015B10F8015B12F8017BC8
:104080007D4001F8015B10F8015B12F8017B7D4077
:1040900001F8015B10F8015B12F8017B7D4001F82B
:1040A000015B10F8015B12F8017B7D4001F8015BB8
:1040B00010F8015B12F8017B7D4001F8015B10F8FC
:1040C000015B12F8017B7D4001F8015B10F8015B98
:1040D00012F8017B7D4001F8015B5D1CEBB20A2BFD
:1040E000FFF66AAFF8BD2DE9FF470646894615463B
:1040F000002407E016F8010B19F804104840285571
:10410000601CC4B2102CF5DB4FF0010871E00024F4
:1041100006E0285DA549085C0DF80400601CC4B2E7
:10412000102CF6DB6846FFF7F7FE002450E01DF880
:104130000400611C1DF801104840A11C1DF801106D
:104140004840E11C1DF8011080EA01071DF8041029
:10415000621C1DF8022081EA020000F04AF91DF8F5
:104160000410484078402855611C1DF80110A21C1D
:104170001DF8022081EA020000F03BF9611C1DF8E5
:10418000011048407840611C6854A11C1DF80110C2
:10419000E21C1DF8022081EA020000F02AF9A11CAD
:1041A0001DF8011048407840A11C6854E11C1DF81E
:1041B00001101DF8042081EA020000F01AF9E11C48
:1041C0001DF8011048407840E11C6854201DC4B21D
:1041D000102CACDB002406E016F8010B295D4840EA
:1041E0002855601CC4B2102CF6DB08F1010000F069
:1041F000FF08B8F10A0F8ADB002405E0285D6B494F
:10420000085C2855601CC4B2102CF7DB2846FFF769
:1042100083FE002406E016F8010B295D484028556E
:10422000601CC4B2102CF6DBBDE8FF872DE9FF5FF0
:1042300007461546A037002405E0285D395D484053
:104240002855601CC4B2102CF7DB103F2846FFF73E
:104250007CFE002405E0285D5649085C2855601C5A
:10426000C4B2102CF7DB4FF0010AB2E0002406E0E4
:10427000285D395D48400DF80400601CC4B2102C64
:10428000F6DB00248AE01DF80400611C1DF8011013
:104290004840A11C1DF801104840E11C1DF8011008
:1042A00080EA01061DF80410621C1DF8022081EA54
:1042B000020000F09EF81DF8041071404840285597
:1042C000611C1DF80110A21C1DF8022081EA0200E9
:1042D00000F08FF8611C1DF8011071404840611C0E
:1042E0006854A11C1DF80110E21C1DF8022081EA8F
:1042F000020000F07EF8A11C1DF80110714048403A
:10430000A11C6854E11C1DF801101DF8042081EA6D
:10431000020000F06EF8E11C1DF8011071404840E9
:10432000E11C68541DF80410A21C1DF8022081EA4B
:10433000020000F05EF8834600F05BF88046611CE6
:104340001DF80110E21C1DF8022081EA020000F0B5
:1043500050F8834600F04DF8814688EA090000F0E5
:1043600048F80646285D86EA080148402855601C42
:10437000285C86EA09014840611C6854A01C285C3E
:1043800086EA08014840A11C6854E01C285C86EAC3
:1043900009014840E11C6854201DC4B2102CFFF6EE
:1043A00072AF2846FFF7D1FD00240BE01005002076
:1043B0000605002010060020285D1349085C2855DA
:1043C000601CC4B2102CF7DB103F0AF1010000F0B2
:1043D000FF0ABAF10A0FFFF649AF002405E0285D95
:1043E000395D48402855601CC4B2102CF7DBBDE88D
:1043F000FF9F014611F0800F03D01B2080EA41008F
:1044000000E04800C0B270471006002010B54FF41D
:10441000C060FBF797FF10BD10B54FF4A060FBF72D
:1044200091FF10BD014600BF704700BF894A128846
:1044300012F0400FFAD0C2B2864B1B1D1A80704793
:1044400010B5C821844800F0C2FB002083490880D1
:1044500010BD10B586B00446012144F20400FCF7FB
:1044600085FD4FF40070ADF8140003208DF81600A0
:1044700018208DF8170005A97948FCF7BFF84FF40C
:104480008060ADF8140004208DF8170005A9744869
:10449000FCF7B4F801940020ADF80800ADF80A006C
:1044A000ADF80C00ADF810000C20ADF80E0001A91D
:1044B0006848FDF79AFE012240F225516548FDF754
:1044C0002CFF01216348FDF71CFF01210820FCF7A8
:1044D0004DFD01218804FCF756FD4FF48060ADF8D6
:1044E000140018208DF8170003208DF8160005A978
:1044F0005C48FCF783F84FF40060ADF8140004202A
:104500008DF8170005A95748FCF778F84FF4E060DC
:10451000FBF718FF27208DF8000000208DF8010020
:1045200001208DF802008DF803006846FBF70FFFAD
:1045300001940020ADF80800ADF80A00ADF80C00B9
:10454000ADF810000C20ADF80E00012240F225510C
:104550004548FDF7E2FE01A94348FDF746FE01226A
:1045600040F225514048FDF7D8FE01213E48FDF7B5
:10457000C8FEFFF765FF06B010BD10B540F225512B
:104580003948FDF7AFFF88B33748FDF72BFFC4B2BA
:10459000242C02D10020314908803048018800884D
:1045A000401C2E4A10802C4844540078242816D1F0
:1045B000294800794D2812D12748407943280ED147
:1045C0000A2C0CD1104602882349284800F0E6FA4C
:1045D0000120264981F850000020204908801F480A
:1045E0000088C82802DBC8201C49088010BD10B50F
:1045F00004462146184800F0F5FA08B1012010BD24
:104600000020FCE710B50020184981F8500081F81F
:10461000510081F87F005021144800F0D8FA134867
:104620005230002101604160018181720B300160D4
:104630004160018181725D38A0F868106A300160C4
:10464000416081606A38A0F876107830016081801E
:10465000817110BD003801403C0700201007002088
:1046600000080140000C0140004800400408002000
:10467000044603E02146CEA000F00EFEFAE770B536
:1046800086B00026CD4890F8500000287DD000204C
:10469000CA4981F85000CAA000F0FEFDC74800F0EA
:1046A000EBFD00BF66E046B9CAA1C44800F09AFA23
:1046B00004005DD10120FFF7DBFF641CC5A120468B
:1046C00000F090FA050050D00A2E36D2DFE806F04E
:1046D00035050C1219202735352E2A1B2146B748DF
:1046E000523000F05BFA29E02A1B214605A800F0B1
:1046F00055FA23E02A1B2146B0485D3000F04EFAFF
:104700001CE02A1B2146AD48683000F047FA15E04E
:104710002A1B2146A9486A3000F040FA0EE02A1B05
:104720002146A648763000F039FA07E02A1B2146D8
:10473000A248783000F032FA00E000BF00BF2C46FB
:1047400001209E4981F851009DF81400412803D1B1
:10475000012081F87F0007E09DF81400562803D15E
:104760000020964981F87F0002E00220FFF780FFD9
:10477000701CC6B2092E96DD904890F8570030386C
:104780008E4991F85610303900E071E001EB81015B
:1047900000EB410090494861884890F85500303856
:1047A000864991F85410303901EB810100EB41004A
:1047B00089490861814890F8530030387F4991F861
:1047C0005210303901EB810100EB41008249C86091
:1047D0007A4890F879003038784991F87810303973
:1047E00001EB810100EB41007B498860734890F840
:1047F0007B003038714991F87A10303901EB810132
:1048000000EB4100744948606C4890F87D003038F6
:104810006A4991F87C10303901EB810100EB4100CD
:104820006D4908606846FFF729FA182269466B4807
:1048300000F0B4F96948016869A000F02DFD6748EF
:10484000416869A000F028FD6448816868A000F014
:1048500023FD6248C16868A000F01EFD5F48016941
:1048600067A000F019FD5D48416967A000F014FDE4
:1048700006B070BD1CB5514890F8510000287DD09D
:10488000242001F05DFA6249086000204B4981F85C
:10489000510060A000F000FD4848523000F0ECFCF0
:1048A00062A000F0F9FC62A000F0F6FC434878300A
:1048B00000F0E2FC5DA000F0EFFC404890F85700EB
:1048C00030383E4991F85610303901EB810100EB48
:1048D00041004F4909680860384890F85500303861
:1048E000364991F85410303901EB810100EB410059
:1048F000474909684860314890F8530030382F49DB
:1049000091F85210303901EB810100EB4100404930
:1049100009688860294890F879003038274991F86B
:104920007810303901EB810100EB4100384909680A
:10493000C860224890F87B003038204991F87A10FE
:10494000303901EB810100EB410031490968086110
:104950001A4890F87D003038184991F87C103039A9
:1049600001EB810100EB41002949096848612848B1
:104970000068006826490968496800E016E0244C90
:10498000CDE900102468A368214C2468E268204C1B
:10499000246821691E4C24686069FFF73BF92AA04E
:1049A00000F07AFC1A48006801F0A2F91CBD000072
:1049B0004552524F5225640D0A00000004080020A1
:1049C0002A2A2A2A2A2A2A2A2A2A2A2A2A2A0D0A84
:1049D000000000002C000000840800209C0800203B
:1049E00032302564C4EA20002564D4C220000000CF
:1049F0002564C8D5200000002564CAB1200000004D
:104A00002564B7D6200000002564C3EB200A00000F
:104A10001C070020536176655F446174612E555414
:104A20004354696D65203D20000000000D0A000020
:104A3000536176655F446174612E555443446174DB
:104A400065203D200000000047505320CAB1BCE45F
:104A5000D2D1C9E8D6C3200A0000000008B54FF43F
:104A6000E060FBF76FFC1C208DF8000000208DF843
:104A700001008DF8020001208DF803006846FBF765
:104A800066FC08BD0EB501210846FCF77CFA4FF420
:104A90007A70ADF804004FF4E150ADF8000000204A
:104AA000ADF80600ADF8020069464FF08040FCF713
:104AB0001FFD01218807FDF73DFB012211469007EC
:104AC000FDF78DF801218807FDF76EF80021012020
:104AD000FCF759FA0EBD00000649074A0868504322
:104AE00043F23902104408604008704701490860E9
:104AF00070470000200700206D4EC64138B5D0E950
:104B00000221491E01EB410102EBC1014268C1EBE8
:104B1000011102EB81010268C1EB011102EB81037B
:104B2000D0E9042101EB410102EB8101A1F55271B1
:104B3000302491FBF4F2154D04FB1211554303EBA5
:104B4000C51300931A2902DB114A1A4400920C2360
:104B500091FBF3F20F4C009D544303FB121105EB44
:104B6000C4140D4B009408E0491E40F2A3245A5C83
:104B70006243009C04EBC21200920029F4DC01465F
:104B8000684600F0B7F8009838BD00003F0C0F00F1
:104B90008051010067C20300D465000840EA0103A8
:104BA0009B0703D009E008C9121F08C0042AFAD2E3
:104BB00003E011F8013B00F8013B521EF9D27047A7
:104BC000D2B201E000F8012B491EFBD2704700224F
:104BD000F6E710B513460A4604461946FFF7F0FFFC
:104BE000204610BD30B505462A460B4612F8010B8B
:104BF00013F8014B08B1A042F8D01CB1002802D034
:104C00006D1CF1E7284630BD70B5C1F30A5201F0C2
:104C100000450024C1F3130140F2FF3341F4801139
:104C20009A4201DA002070BD40F233439A42A2F268
:104C3000334203DC524200F04DF800E090402C4338
:104C4000F1D0404270BD30B50B4601460020202215
:104C5000012409E021FA02F59D4205D303FA02F589
:104C6000491B04FA02F52844151EA2F10102F1DCE9
:104C700030BD2DE9F05F0546002092469B468846F0
:104C80000646814640241BE02846414647462246C8
:104C900000F020F853465A46C01A914110D31146ED
:104CA0001846224600F03AFA2D1A67EB01084F46E3
:104CB00022460120002100F031FA17EB00094E4195
:104CC000201EA4F10104DFDC484631462A46434653
:104CD000BDE8F09F202A04DB203A21FA02F00021EF
:104CE000704721FA02F3D040C2F1200291400843FC
:104CF0001946704730B503683C22B3FBF2F002FB63
:104D000010330B60B0FBF2F302FB13001824486071
:104D1000B3FBF4F004FB10328A60021D0723B2FBE0
:104D2000F3F403FB14228A61820002F66C3240F233
:104D3000B555B2FBF5F404F144000346486105FBA8
:104D400014208008C8613B2802D39A0700D0401C79
:104D50000022074C13460A61E25C824203D8801AA3
:104D60005B1C0B61F8E7401CC860084630BD0000C2
:104D7000E06500082DE9FE4F804681EA0300C00F80
:104D80000C46009021F0004123F00045B8EB0200F2
:104D9000A94105D24046214690461C460B46024694
:104DA00023F00040104304D14046214603B0BDE843
:104DB000F08F270DC7F30A00C3F30A510290401A7F
:104DC0000190402866DAC3F3130040F4801B00987A
:104DD000924620B10023D2EB030A63EB0B0B019840
:104DE0005946C0F14002504600F098F906460D467B
:104DF00050465946019A00F0A0F910EB08006141B5
:104E0000002487EA115284EAE7731A433BD0009AE0
:104E10003AB3019A012A4FEA075210DC001B61EBFA
:104E200002014FF0004202EA0752CDE90042001CA5
:104E300041F5801132462B4600F09EF9B6E7001B83
:104E400061EB0201001C41F5801300185B41201842
:104E5000A2F5001747EB030140EAD570B6196D4182
:104E600011E06D084FEA360645EAC0754FEA075271
:104E7000001B61EB0201001C41F5801149084FEA5B
:104E800030000019514132462B4603B0BDE8F04FC7
:104E900000F065B90098012240000023D0EB020227
:104EA00063EBE073009821464FEAE074B8EB000032
:104EB00061EB0401E9E783F000435BE781F0004127
:104EC00058E72DE9FE4F81EA030404F0004421F085
:104ED000004100944FF0000B23F0004350EA01041E
:104EE00002D052EA030404D10020014603B0BDE819
:104EF000F08FC3F30A54C1F30A552C44A4F2F334DF
:104F00000194A0FB0254C1F3130141F48011C3F3D7
:104F1000130343F4801301FB024400FB034E840A95
:104F2000970A44EA815447EA8357A4FB076802952D
:104F30008D0A05FB07854FEA932C04FB0C542705CB
:104F4000029D4FEA065847EA1637B5EB08056EEBA7
:104F5000070C870E920E47EA811742EA8312A7FBDD
:104F60000201B6EB0B0164EB00042B0D43EA0C339A
:104F70005E1844EB1C50DA465146E7FB0201C5F3CC
:104F800013044FEA0B3343EA14534FEA0432019CF3
:104F900043EA0603A4F10C040294009CCDE900B49A
:104FA00000F0EAF8A2E72DE9F04D81EA030404F0ED
:104FB000004B21F0004514464FF0000A23F0004159
:104FC00050EA050220D054EA01021DD0C5F30A5769
:104FD0000246C5F31303C1F31300C1F30A5640F4AC
:104FE000801543F48013A7EB0608101BD64608F281
:104FF000FD3873EB050002D308F1010801E09218B7
:105000005B41B8F1000F03DA00200146BDE8F08DE6
:1050100000204FF48011064684460EE0171B73EB08
:10502000050705D3121B63EB050306434CEA010C8D
:1050300049084FEA300092185B4150EA0107EDD170
:1050400052EA030012D082EA040083EA0501084311
:1050500003D100224FF0004308E0101BAB4102D205
:105060000122002302E06FF0010253101AEB060048
:105070004CEB085110EB0A0041EB0B01BDE8F04D81
:1050800000F06DB80EB540F2334102910021CDE938
:1050900000110A460B4600F06FF803B000BDC1F3E3
:1050A0000A52C1F3130140F2FF3341F480119A42D6
:1050B00002DA00200146704740F233439A42A2F2DE
:1050C000334202DC5242FFF705BE00F027B8000071
:1050D00030B5002904DB4FF00044404264EB01018D
:1050E000002B04DB4FF00044524264EB030399426F
:1050F00008BF904230BD0000064C074D06E0E06856
:1051000040F0010394E8070098471034AC42F6D30E
:10511000FBF712F8EC6500080C660008202A04DB97
:10512000203A00FA02F1002070479140C2F12003BA
:1051300020FA03F3194390407047202A06DBCB176F
:10514000203A41FA02F043EAE07306E041FA02F342
:10515000D040C2F12002914008431946704710B573
:10516000002B08DA401C41F1000192185B411A4300
:1051700001D120F0010010BD2DE9F04D92469B4673
:1051800011B1B1FA81F202E0B0FA80F22032904619
:10519000FFF7C4FF04460F4640EA0A0041EA0B014C
:1051A00053465A46084303D120463946BDE8F08DA0
:1051B000114653EA010015D0C8F140025046FFF7EE
:1051C00089FD05460E46504659464246FFF7A6FF62
:1051D000084301D0012000E00020054346EAE076C4
:1051E0002C4337430A984FEA4453A0EB08004FEA98
:1051F000D4240A304FF0000244EA47544FEAD7253E
:1052000002D500200146D1E7010510196941DDE909
:10521000084500196941BDE8F04DA0E770B501EB04
:10522000020410F8015B15F0070301D110F8013BEF
:105230002A1106D110F8012B03E010F8016B01F8D8
:10524000016B5B1EF9D12B0705D40023521E0FD42E
:1052500001F8013BFAE710F8013B02F10202A1EB71
:10526000030303E013F8015B01F8015B521EF9D55B
:10527000A142D6D3002070BD0FB4054B10B503A9D1
:10528000044A029800F080F910BC5DF814FB00009D
:105290002B440008180700200FB4054B10B503A9D4
:1052A000044A029800F0C6F810BC5DF814FB000038
:1052B0002B4400081807002002E008C8121F08C18C
:1052C000002AFAD170477047002001E001C1121F87
:1052D000002AFBD1704700002DE9FF5FDDE90220C5
:1052E000010DDDF838B0024310D10F9801244CA213
:1052F000012808D0002100980F9BC0E90021C0E9D7
:105300000243BDE8FF9F6FEA0B01F4E7A1F2FF3112
:1053100044F6105041430D140F9801280ED0A5EB10
:105320000B00401C4FF000043E4EDFF8FC90B0F143
:10533000000AA04605DACAF1000717E0CBF1000029
:10534000F0E7074612E0F80707D02246334640460A
:105350004946FFF7B6FD8046894622463346104649
:105360001946FFF7AEFD04460E467F10002FEAD126
:10537000DDE90201BAF1000F42464B4602DAFFF7BF
:10538000A0FD01E0FFF70FFE04460E460022274B6A
:10539000FFF79EFE03D84FF0FF30014607E00022E2
:1053A000234B20463146FFF7E5FCFFF778FE10243B
:1053B00009E0002C0ADB0A220023FFF75AFC019BBC
:1053C00030321A55641E50EA0102F2D1641C019A6F
:1053D000C4F1110314440F9A012A09D00122084391
:1053E00001D15B450FDD4FF0000205F101050DE035
:1053F000084303D1A3EB0B056D1E09E000204FF01D
:10540000110B0F9088E701DA00226D1E002A83D06D
:1054100000980F99C0E90231C0E9004571E700002A
:1054200030000000000024400000F03F0000F04386
:105430000000E03F2DE9FF4F89B09B460446002560
:1054400097E0252833D10027641C4E49B846012235
:105450002378203B02FA03F0084202D00743641C81
:10546000F6E720782E2819D114F8010F47F0040729
:105470002A280ED06FF02F022078A0F130010929E0
:105480000CD808EB880102EB410100EB0108641C19
:10549000F2E70A98641C50F8048B0A9020780028E0
:1054A0006BD0642808D0692806D0752820D05A46C9
:1054B0000B9990476D1C5BE00A994FF00A0901C9EE
:1054C0000A91002804DAC0F100004FF02D0102E03B
:1054D000390504D52B218DF82010012103E0F907AF
:1054E00004D02021F7E78A4608AE0EE00021FAE753
:1054F0000A994FF00A0901C90A91F7E74946FFF7EF
:10550000A2FB01F1300106F8011D0028F6D1ADEB38
:10551000060000F12009780701D44FF00108C845C2
:1055200002DDA8EB090000E000208046002706E02D
:1055300008A85A46C05D0B9990476D1C7F1C5745C3
:10554000F6DB04E030205A460B9990476D1CB8F109
:105550000001A8F10108F5DC05E016F8010B5A4638
:105560000B9990476D1CB9F10001A9F10109F4DC18
:10557000641C207800287FF464AF0DB02846BDE895
:10558000F08F0000092801002DE9FF4F95B09B46E0
:1055900089460646002512E2252878D10024761C8B
:1055A000F94A2746012105943378203B01FA03F09C
:1055B000104202D00443761CF6E730782A2811D036
:1055C0006FF02F033078A0F13002092A16D8059A1F
:1055D00044F0020402EB820203EB42021044761C08
:1055E0000590EFE759F8042B0592002A03DA5042A0
:1055F00044F40054059044F00204761C30782E28C0
:1056000016D116F8010F44F004042A280DD06FF0CB
:105610002F023078A0F13003092B09D807EB87035C
:1056200002EB4303C718761CF3E759F8047B761C9A
:1056300030786C280FD006DC4C2817D068280DD0A5
:105640006A2814D104E0742810D07A280FD10DE014
:1056500044F400140AE044F4801401E044F44014DB
:105660007278824202D1761C04F58014761C307860
:1056700066280BD013DC582877D009DC002875D0B9
:105680004528F6D04628F4D047281AD19FE118E0E3
:10569000632835D0642879D0652812D197E1702825
:1056A00073D008DC6728F1D069286FD06E280DD040
:1056B0006F2806D1B5E073282CD0752875D07828CE
:1056C00074D05A46179990476D1C76E1C4F3025086
:1056D000022809D003280DD0D9F8001004280DD0D5
:1056E0000D6009F1040968E1D9F80010EA17C1E971
:1056F0000052F6E7D9F800100D80F2E70D70F0E7E0
:1057000019F8041B8DF8001000208DF80100EA46FE
:10571000012003E059F804AB4FF0FF3061074FF070
:10572000000102D40DE008F101018846B9420FDA08
:105730008045F8DB1AF808100029F4D108E008F1D8
:10574000010188468142FADB1AF808100029F6D1D7
:1057500005985B46A0EB080721463846179A00F0EB
:105760009EFA284400EB080507E04DE02BE10DE030
:105770001AF8010B5A4617999047B8F10108F7D269
:105780005B4621463846179A14E142E00A2200920D
:10579000C4F302524FF0000A022A08D059F804CB91
:1057A000032A4FEAEC710AD00DE029E02AE009F162
:1057B000070121F00702F2E802C1914609E00FFA61
:1057C0008CFC4FEAEC71042A03D14FFA8CFC4FEAAF
:1057D000EC71002907DA0A460021DCF1000C61EBCC
:1057E00002012D2202E0220504D52B228DF804208F
:1057F000012203E0E20701D02022F7E7904653E0C0
:105800000A2102E010220DE010214FF0000A009161
:105810000BE010224FF0000A44F004040827009225
:1058200003E008224FF0000A0092C4F30252022A59
:1058300005D059F804CB0021032A08D009E009F16A
:10584000070121F00702F2E802C1914605E01FFAC4
:105850008CFC042A01D10CF0FF0C4FF00008220749
:1058600022D5702827D0009B83F0100353EA0A0347
:1058700009D15CEA010206D030228DF804208DF8AF
:10588000050002229046009B83F0080353EA0A03B6
:105890000AD15CEA010201D1620705D530228DF8F8
:1058A00004204FF001087F1E582809D037A003902C
:1058B0000EA8029013E040228DF804200122E1E7B7
:1058C00037A0F4E753466046009AFFF7D2F98446C2
:1058D0000398825C0298A0F10100029002705CEAD9
:1058E0000100EFD1029806A9A1EB000000F1200A07
:1058F000600702D524F4803400E00127574502DD1B
:10590000A7EB0A0000E0002000EB0A0100900598D8
:105910004144A0EB01000590E00306D45B4621461C
:10592000179A059800F0BBF90544002706E001A886
:105930005A46C05D179990476D1C7F1C4745F6DBA2
:10594000E0030CD55B462146179A059800F0A7F9AD
:10595000054404E030205A46179990476D1C009981
:10596000481E00900029F5DC08E0029802995A468A
:105970000078491C0291179990476D1CBAF10001FB
:10598000AAF1010AF1DC6BE1092801003031323360
:10599000343536373839616263646566000000006B
:1059A0003031323334353637383941424344454655
:1059B0000000000000F060F9054406F101063078AF
:1059C00000287FF4E9AD19B02846BDE8F08F6207E2
:1059D00000D4062709F1070222F0070CFCE8022395
:1059E000E14603F000485FEA080C02D00FF27C2C7D
:1059F0000DE05FEA045C02D50FF2742C07E05FEA69
:105A0000C47C02D00FF26C2C01E0AFF2700C4FF0AE
:105A1000FF3823F00043CDF850C065280CD006DCD9
:105A2000452809D046281DD047283ED13EE06628AB
:105A300018D0672839D139E00021112F01DB11205E
:105A400000E0781CCDE9000106A90EA8FFF744FC90
:105A5000DDE90F010E9A03910021009207F1010A7E
:105A600004914EE04FF000400097CDE9011006A9E7
:105A70000EA8FFF731FCDDE90F0203920E9B11998E
:105A80000022DDF80CA00093049219B907F101017E
:105A900000EB010AB7EB0A0004D4C0F1FF3007F1B4
:105AA000010A0490AAEB0700019046E0012F00DAFA
:105AB00001270021112F01DD112000E03846CDE93A
:105AC000000106A90EA8FFF707FCDDE90F010E9AF9
:105AD0000391002104910092BA4621070CD4039946
