:020000040800F2
:10000000B00E002045010008391800083B18000810
:100010004B1800084F180008531800080000000093
:100020000000000000000000000000005718000859
:1000300059180008000000005B1800085D1800084F
:100040005F0100085F0100085F0100085F01000810
:100050005F0100085F0100085F0100085F01000800
:100060005F0100085F0100085F1800085F010008D9
:100070005F0100085F0100085F0100085F010008E0
:100080005F0100085F0100085F0100085F010008D0
:100090005F0100085F0100085F0100085F010008C0
:1000A0005F0100085F0100085F0100085F010008B0
:1000B0005F0100085F0100085F0100085F010008A0
:1000C0005F0100085F0100085F0100085F01000890
:1000D0005F010008FB3000085F0100085F010008B5
:1000E0005F0100085F0100085F0100085F01000870
:1000F0005F0100085F0100085F0100085F01000860
:100100005F0100085F0100085F0100085F0100084F
:100110005F0100085F0100085F0100085F0100083F
:100120005F0100085F0100085F0100085F0100082F
:10013000DFF80CD003F0E8FD004800475117000835
:10014000B00E00200648804706480047FEE7FEE75D
:10015000FEE7FEE7FEE7FEE7FEE7FEE7FEE7FEE777
:1001600045020008310100080CB500200190009004
:100170006B48006840F480306949086000BF6848F7
:10018000006800F4003000900198401C0190009835
:1001900018B90198B0F5A06FF1D16148006810F46A
:1001A000003F02D00120009001E000200090009864
:1001B000012842D15B48006840F0100059490860AE
:1001C0000846006820F0030008600846006840F018
:1001D000020008605248406851494860084640683B
:1001E00048600846406840F48060486008464068BF
:1001F00020F47C1048600846406840F4E8104860ED
:100200000846006840F08070086000BF44480068FD
:1002100010F0007FFAD04248406820F003004049C7
:1002200048600846406840F00200486000BF3C4813
:10023000406800F00C000828F9D10CBD10B5FFF79C
:1002400093FF10BD10B53648006840F001003449F6
:10025000086008464068344908403149486008460B
:100260000068324908402E4908600846006820F4BA
:10027000802008600846406820F4FE0048604FF483
:100280001F008860FFF7DAFF4FF000602849086020
:1002900010BD10B5002100200022214B5B6803F047
:1002A0000C0121B1042906D0082928D107E0214BEF
:1002B000214C236027E01F4B1F4C236023E0184B89
:1002C0005B6803F47010164B5B6803F48032022302
:1002D00003EB904022B9194B4343174C23600DE0C8
:1002E0000F4B5B6813F4003F04D0144B4343124C94
:1002F000236003E00F4B43430F4C236003E00D4B9F
:100300000D4C236000BF00BF054B5B68C3F30313B4
:100310000B4CE15C084B1B68CB40074C236010BDC5
:1003200000100240002002400000FFF8FFFFF6FE30
:1003300008ED00E000127A000000002000093D00F6
:100340000400002031490143314A1160704770B503
:10035000002100230F22C4780CB32D4C246804F430
:10036000E064C4F5E064210AC1F10403CA404478A2
:1003700004FA03F18478144021430901254C0678DE
:10038000A155047804F01F050124AC4005786D11D7
:100390004FF0E02606EB8505C5F8004109E004783A
:1003A00004F01F050124AC401B4D0678761145F87A
:1003B000264070BD194A0A400243154B1B1F1A60A4
:1003C000704739B1124A121D12680243104B1B1DAF
:1003D0001A6006E00E4A121D126882430C4B1B1D68
:1003E0001A607047042808D14FF0E021096941F0F4
:1003F00004014FF0E022116107E04FF0E0210969AC
:1004000021F004014FF0E022116170470000FA056D
:100410000CED00E000E400E080E100E080FFFF1F61
:10042000002044490860091D0860091D0860091D75
:10043000086041483F4914310860704700213D4938
:100440008279002A3AD00A46126803689A430B461A
:100450001A600A1D126803689A430B1D1A6002791C
:1004600011440A6803681A430A60324A0832126863
:1004700003689A432F4B08331A601A1D12680368E9
:100480009A432C4B0C331A604279102A0ED11A1F52
:10049000126803681A43274B08331A601A1D126842
:1004A00003681A43234B0C331A600DE0214942794B
:1004B00011440A6803681A430A6005E0027911448E
:1004C0000A6803689A430A6070470021016001715D
:1004D0000C21417100218171704716491031096862
:1004E0000143144A10321160704701460020114A3E
:1004F000143212680A4201D0012000E00020704747
:100500000C49143108607047014600200022094B55
:100510001B6803EA0102074B14331B680B4202D02D
:100520000AB1012000E00020704702491431086040
:100530007047000000040140FFFF0F0010B50446A3
:10054000CA48844208D10121042000F029FD00217D
:10055000042000F025FD46E0C548844208D1012171
:10056000082000F01DFD0021082000F019FD3AE0F0
:10057000C048844208D10121102000F011FD002163
:10058000102000F00DFD2EE0BB48844208D101216F
:10059000202000F005FD0021202000F001FD22E0D8
:1005A000B648844208D10121402000F0F9FC002126
:1005B000402000F0F5FC16E0B148844208D101214A
:1005C000802000F0EDFC0021802000F0E9FC0AE032
:1005D000AC48844207D10121801500F0E1FC0021E4
:1005E000A01500F0DDFC10BD10B50121084600F09B
:1005F000D7FC0021012000F0D3FC10BD2DE9F04113
:10060000024600250026002000230024002791F840
:1006100003C00CF00F0591F803C01CF0100F03D0BD
:1006200091F802C04CEA050591F800C0BCF1000F3A
:1006300031D0146800202BE04FF0010C0CFA00F3CD
:10064000B1F800C00CEA03069E4220D183004FF0AF
:100650000F0C0CFA03F7BC4305FA03FC4CEA040444
:1006600091F803C0BCF1280F06D14FF0010C0CFA31
:1006700000FCC2F814C00AE091F803C0BCF1480FB6
:1006800005D14FF0010C0CFA00FCC2F810C0401C60
:100690000828D1D31460B1F800C0BCF1FF0F34DDDD
:1006A000546800202EE000F1080C4FF0010808FA11
:1006B0000CF3B1F800C00CEA03069E4221D183007E
:1006C0004FF00F0C0CFA03F7BC4305FA03FC4CEA9D
:1006D000040491F803C0BCF1280F05D100F1080C07
:1006E00008FA0CF8C2F8148091F803C0BCF1480F66
:1006F00007D100F1080C4FF0010808FA0CF8C2F815
:100700001080401C0828CED35460BDE8F0814FF61D
:10071000FF710180022181700421C170704702467F
:10072000002093680B4201D0012000E000207047B8
:100730000146886880B2704702460020D3680B42A9
:1007400001D0012000E0002070470146C86880B257
:10075000704701617047416170470AB1016100E073
:1007600041617047C16070474FF480320A43826133
:100770008161826182698269704702460020424B32
:1007800018684FF68073184040EA021008433E4B49
:10079000186070473D49C8617047F0B50A460023AC
:1007A00000240021002500F00046B6F1004F02D1E0
:1007B000354EF16901E0344E7168C0F3034583B2F0
:1007C00000F44016B6F5401F08D121F070612E4E9E
:1007D000766826F070662C4F7E6012E000F480167A
:1007E000B6F5801F06D1032606FA05F4A14341F0B1
:1007F000706106E0460D360103FA06F6B14341F09A
:10080000706122B1460D360103FA06F6314300F05D
:100810000046B6F1004F02D11B4EF16101E01A4EC5
:100820007160F0BD30B500228B071C0F0F2303FA57
:1008300004F2154B08338C1053F824309343124CB8
:1008400008348D1044F8253023468C1053F824309A
:100850008C07240F00FA04F423430B4C08348D104A
:1008600044F8253030BD0A4908607047000801404F
:10087000000C01400010014000140140001801402C
:10088000001C014000200140000001400000204207
:10089000DC00204210B50446F748844209D101210A
:1008A000480500F08AFB00214FF4001000F085FBA2
:1008B00008E00121880500F080FB00214FF4800052
:1008C00000F07BFB10BD2DE9F04385B004460D46DA
:1008D0000026B1460427DFF8A483A6884FF6C0702F
:1008E0000640684600F0D5FADDF80880E448B8FB19
:1008F000F0F01FFA80F946EA0906A68020884FF634
:10090000FE71084020800026DE49286888420CD805
:1009100028684000B8FBF0F087B2042F00DA042703
:100920003E4309F10100208427E0E888A0F53F411B
:10093000FF3906D1286800EB4000B8FBF0F087B221
:1009400009E0286800EBC00101EB0010B8FBF0F0F3
:1009500087B247F480473805000D01D147F0010701
:1009600047F4004006434FF4967009FB00F04FF443
:100970007A7190FBF1F0401C2084A683208840F01F
:100980000100208026884FF6F5300640A888698946
:10099000084306432680A88929890843208105B099
:1009A000BDE8F08341F288310160002181804BF67F
:1009B000FF71C1800021018141814FF4804181811B
:1009C000704721B1028842F00102028004E00288EF
:1009D0004FF6FE731A400280704721B1828842F4BC
:1009E0000062828004E082884FF2FF731A408280A6
:1009F000704721B1828842F48052828004E082886C
:100A00004EF6FF731A408280704721B1028842F48B
:100A10008072028004E002884FF6FF631A40028071
:100A2000704721B1028842F40072028004E002881B
:100A30004FF6FF531A400280704721B1028842F4FA
:100A40008062028004E002884FF6FF331A40028081
:100A500070470A46002181894FF60173194002F060
:100A6000FE0319438181704721B1828942F001025E
:100A7000828104E082894FF6FE731A4082817047BA
:100A800021B1028842F04002028004E002884FF661
:100A9000BF731A40028070471AB183880B4383806A
:100AA00002E083888B438380704701827047014650
:100AB000088AC0B2704712B141F0010102E04FF65E
:100AC000FE7319400182704708B50246002000906D
:100AD00000920098084400900098008808BD21B159
:100AE000028842F40042028003E00288C2F30E0250
:100AF00002807047B1F5006F04D1028842F40062B1
:100B0000028004E002884FF2FF731A4002807047AF
:100B1000B1F5005F04D1028842F40052028004E083
:100B200002884DF6FF731A400280704721B1028897
:100B300042F48052028004E002884EF6FF731A40AD
:100B400002807047B1F5006F04D1028842F4006260
:100B5000028004E002884FF2FF731A40028070475F
:100B600021B1028842F02002028004E002884FF6A0
:100B7000DF731A40028070470146088B00127047ED
:100B800021B1028842F01002028004E002884FF690
:100B9000EF731A400280704721B9028842F0800248
:100BA000028004E002884FF67F731A40028070478B
:100BB000B1F5804F05D0828B4BF6FF731A408283CC
:100BC00003E0828B42F480428283704770B5024614
:100BD0000024002500230020958A138B1B0445EA7E
:100BE000030626F07F4404EA01068E4201D101206B
:100BF00000E0002070BD10B5014600200023002257
:100C00008B8A0A8B120443EA020424F07F4010BD51
:100C10000CB50246002000230193009300920B0FB5
:100C2000019321F07F41019B1BB1009B1433009382
:100C300003E0090C009B18330093009B1B680B42D8
:100C400001D0012000E000200CBD002221F07F42F5
:100C5000D3438382704730B5024600200023948836
:100C600001F0E06504EA154321F07F41948A0C42CB
:100C70000AD04BB1012008E00054004000127A0075
:100C800040420F00A0860100002030BD002221F06C
:100C90007F42D34383827047DD48006840F0010003
:100CA000DB49086008464068DA490840D84948608E
:100CB00008460068D8490840D549086008460068D9
:100CC00020F4802008600846406820F4FE00486058
:100CD0004FF41F0088607047CD49096821F48031C6
:100CE000CB4A11601146096821F480211160B0F5EA
:100CF000803F03D0B0F5802F0ED106E0C4490968CB
:100D000041F48031C24A116007E0C149096841F4E9
:100D1000A021BF4A116000E000BF00BF704710B5BE
:100D200001460022002300204A11012A02D1B84CBA
:100D3000236806E0022A02D1B54C236A01E0B44CD4
:100D4000636A01F01F02012494401C4201D001207B
:100D500000E0002010BD38B50020009000240025E0
:100D600000BF3120FFF7DBFF05460098401C0090D4
:100D70000098B0F5A06F01D0002DF2D03120FFF720
:100D8000CEFF08B1012400E00024204638BD014612
:100D900000209F4A106820F0F80040EAC10010606F
:100DA00070479E490860704702460020984B58687B
:100DB00020F47C1042EA01031843954B58607047B9
:100DC00096490866704701460020914A506820F015
:100DD00003000843506070478D48406800F00C00E5
:100DE0007047014600208A4A506820F0F00008430E
:100DF0005060704701460020854A506820F4E0604A
:100E000008435060704701460020814A506820F432
:100E1000605040EAC1005060704729B17C4A527A64
:100E200002437B4B5A7204E0794A527A8243784BF0
:100E30005A7270477A490860704701460020744A28
:100E4000506820F440400843506070470021754AC4
:100E500011706F4A82F82010012802D0042808D1AE
:100E600003E001216F4A117004E005216D4A117001
:100E700000E000BF00BF70476B49086070476449DD
:100E8000096A0143624A1162704767494439086040
:100E9000704730B500210022002400235C4D6D68AE
:100EA00005F00C0121B1042905D0082923D105E062
:100EB0005E4D056022E05D4D05601FE0544D6D689C
:100EC00005F47012524D6D6805F48034022505EB6F
:100ED00092421CB9564D554305600BE04C4D6D6870
:100EE00015F4003F03D0524D5543056002E04F4DCD
:100EF0005543056002E04D4D056000BF00BF444D05
:100F00006D6805F0F00109094A4D6B5C0568DD402C
:100F100045603F4D6D6805F4E061090A454D6B5C25
:100F20004568DD4085603A4D6D6805F46051C90A39
:100F3000404D6B5C4568DD40C560354D6D6805F41E
:100F40004041890B3C4D6B5CC568B5FBF3F5056111
:100F500030BD29B12E4A526902432D4B5A6104E03B
:100F60002B4A526982432A4B5A61704729B1284A59
:100F700092690243264B9A6104E0254A92698243B2
:100F8000234B9A61704729B1214AD2690243204B11
:100F9000DA6104E01E4AD26982431D4BDA61704770
:100FA00029B11B4AD2680243194BDA6004E0184A9F
:100FB000D2688243164BDA60704729B1144A12692D
:100FC0000243134B1A6104E0114A12698243104B29
:100FD0001A61704714494039086070470F49C86466
:100FE00070470B49C87170470948406A40F08070EB
:100FF00007494862704701460020054A92680A4244
:1010000001D0012000E0002070470149887270473C
:10101000001002400000FFF8FFFFF6FE0000424211
:10102000D8004242201002408004424200127A005E
:1010300000093D00140000202400002010B50446E3
:10104000BE48844208D101218014FFF7A9FF002186
:10105000A014FFF7A5FF16E0B948844208D101218A
:101060000014FFF7AAFF00212014FFF7A6FF0AE0F3
:10107000B448844207D10121C013FFF79EFF00212D
:10108000E013FFF79AFF10BD10B50022028802F4AA
:1010900041520B884C8823438C882343CC882343BC
:1010A0000C8923434C8923438C892343CC892343D4
:1010B0001A430280838B4FF2FF74234083830B8A91
:1010C000038210BD2DE9F04F85B005460C464FF068
:1010D000000902274FF000084FF0010B0026B2462E
:1010E000A88B4FF240010840A88302202884B5F85D
:1010F0001C90A068022801D100BF38E0A08810B978
:101100004FF0010B01E04FF0020B8D48854200D1FA
:1011100000E000BF6846FFF7BCFEDDF800A0E088F5
:10112000B0F5007F0AD14FEA1A2000EB80004000A2
:10113000A168B0FBF1F0401D86B20BE04FEA4B1006
:10114000BAFBF0F000EB80004000A168B0FBF1F0CA
:10115000401D86B20A20B6FBF0F606F00108A6EBA9
:101160000800C0F34F074FF6FF7000EA0828022F6F
:1011700001DBFF2F02DD02274FF00008E08840EA84
:10118000080038432884A088A1890843618808435F
:101190002188084340F4006040EA0909A5F81C9042
:1011A00005B0BDE8F08F0021018041808180C180C1
:1011B000018141818181C181072101827047002124
:1011C000018041808180C180022181600021818174
:1011D000704721B1028842F04002028004E0028898
:1011E0004FF6BF731A400280704721B1828B42F4E0
:1011F0008062828304E0828B4FF6FF331A40828341
:10120000704730B5002400230C110125A540ABB276
:101210001AB185881D43858002E085889D438580BD
:1012200030BD1AB183880B43838002E083888B43EF
:101230008380704781817047014688897047A1F596
:101240007E42FF3A04D0028842F48072028004E0B9
:1012500002884FF6FF631A400280704721B18288EE
:1012600042F00402828004E082884FF6FB731A4049
:101270008280704702884FF2FF731A400280028812
:101280000A4302807047018841F480510180704711
:1012900021B1028842F40052028004E002884DF637
:1012A000FF731A400280704702460020012901D0D6
:1012B000108B00E0908A70470146088A7047B1F5AC
:1012C000804F04D1028842F48042028004E0028808
:1012D0004BF6FF731A4002807047024600201389C4
:1012E0000B4201D0012000E000207047CA43028178
:1012F0007047F0B50246002000240023002501F0CD
:101300000F070126BE40B4B20B1101269E40B3B2B6
:10131000968806EA03051689264202D00DB10120FF
:1013200000E00020F0BD10B5002201F00F04012301
:10133000A3409AB2D343038110BD000000300140A6
:1013400000380040003C004010B50446FB48844291
:1013500009D101218803FFF723FE00214FF48040CB
:10136000FFF71EFE32E0F648844209D1012148040D
:10137000FFF723FE00214FF40030FFF71EFE25E0AB
:10138000F048844209D101218804FFF716FE0021AC
:101390004FF48020FFF711FE18E0EB48844209D19A
:1013A0000121C804FFF709FE00214FF40020FFF7D8
:1013B00004FE0BE0E548844208D101210805FFF74F
:1013C000FCFD00214FF48010FFF7F7FD10BD2DE963
:1013D000F04786B005460E460024A24600BFA1464F
:1013E0000027B08900B100BF2F462C8A4CF6FF7051
:1013F0000440F08804432C82AC894EF6F31004407C
:10140000B08831890843718908430443AC81AC8AB0
:101410004FF6FF400440B0890443AC8201A8FFF7B7
:1014200038FDC648874202D1DDF810A001E0DDF8A2
:101430000CA0A88910F4004F08D00AEBCA0000EBFA
:101440000A1031684900B0FBF1F807E00AEBCA0066
:1014500000EB0A1031688900B0FBF1F86420B8FB9A
:10146000F0F004012009642101FB1089A88910F41F
:10147000004F08D0322000EBC900B0FBF1F000F0C3
:101480000700044308E0322000EB09106421B0FBA0
:10149000F1F000F00F0004432C8106B0BDE8F087A6
:1014A0004FF41651016000218180C18001810C211F
:1014B000418100218181704710B502460020108AC9
:1014C0004FF2FF0318400B884C8823438C8823433A
:1014D000CC8823431843108210BD00210180418035
:1014E0008180C180704721B1828942F4005282819B
:1014F00004E082894DF6FF731A4082817047F0B58F
:1015000003460024002600250020A1F510676A3F4D
:1015100000D100BF1846C1F3421401F01F06012795
:1015200007FA06F5012C01D10C3004E0022C01D1A0
:10153000103000E014301AB107682F43076002E052
:101540000768AF430760F0BD1AB1838A0B438382FB
:1015500002E0838A8B4383827047028A4FF6F073DE
:101560001A400282028A0A430282704782894FF23D
:10157000FF731A40828182890A438281704721B1B8
:10158000828942F00202828104E082894FF6FD7373
:101590001A4082817047028A4FF6DF731A40028236
:1015A000028A0A430282704721B1028A42F48042D1
:1015B000028204E0028A4BF6FF731A4002827047EF
:1015C000C1F308028280704701468888C0F3080092
:1015D0007047818941F0010181817047028BD2B24D
:1015E0000283028B42EA012202837047028B02F4DB
:1015F0007F420283028B0A430283704721B1828AB1
:1016000042F02002828204E0828A4FF6DF731A40A1
:101610008282704721B1828A42F01002828204E005
:10162000828A4FF6EF731A408282704721B1828A14
:1016300042F00802828204E0828A4FF6F7731A4071
:101640008282704721B1828942F40042828103E0A4
:101650008289C2F30E028281704721B1828A42F4EC
:101660000062828204E0828A4FF2FF731A40828213
:101670007047828A4FF6FB731A408282828A0A433D
:101680008282704721B1828A42F00202828204E0A3
:10169000828A4FF6FD731A4082827047024600200C
:1016A000B1F5007F00D100BF13880B4201D00120AB
:1016B00000E00020704701F40072B2F5007F00D115
:1016C00000BFCA430280704770B502460024002361
:1016D00000250020A1F510666A3E00D100BFC1F3CD
:1016E000421501F01F03012606FA03F3012D02D172
:1016F0009689334006E0022D02D1168A334001E07C
:10170000968A33400C12012606FA04F416883440F7
:1017100013B10CB1012000E0002070BD10B5002213
:101720000023A1F510646A3C00D100BF0A12012415
:101730009440A3B2DC43048010BD00000038014097
:101740000044004000480040004C00400050004071
:101750001CB500F02FFE00F0B1FD4FF4165001F063
:101760007EFC01F05FFC00F0A9FD00F0AAF800F09B
:10177000D9FF0920294988600B20C860142008611E
:101780000120486000204861112008600846406937
:101790000969224CCDE90010E368A26861682068FD
:1017A00001F050F908200123022200210090084690
:1017B00000F0EFFE0D220021084600F047FF0E2248
:1017C0000021122000F042FF0F220021242000F00F
:1017D0003DFF10220021362000F038FF11220021A9
:1017E000482000F033FF122200215A2000F02EFF83
:1017F000012080F3108800BF002080F3108800BF14
:1018000000F09FF90649087006A002F04DFB03E0C6
:1018100001F0FBFC01F046FEFAE700007C08002026
:101820002800002057656C636F6D6520746F20750C
:101830007365210D0A00000070471B48006810F016
:10184000010F00D000BE00BFFEE700BFFEE700BFF3
:10185000FEE700BFFEE7704770477047704770B5FE
:1018600000241020FEF750FEE8B100F0E5F915E085
:1018700000F037F90D4800F086F905460B48001DC9
:1018800000F081F905460948083000F07CF905466A
:1018900006480C3000F077F9054600E0E8E700BFA5
:1018A0001020FEF742FE70BDF0ED00E0240700209E
:1018B00001B502E00098401E009000980028F9D180
:1018C00008BD00B587B001214FF48470FFF74EFBCF
:1018D00001218803FFF757FB4FF46040ADF8040087
:1018E00001208DF8060018208DF8070001A9FE4898
:1018F000FEF784FEC020ADF8040001208DF806003C
:1019000010208DF8070001A9F848FEF777FE4FF484
:101910008070ADF8040001208DF8060048208DF895
:10192000070001A9F148FEF769FE8021EF48FEF7A4
:1019300010FF0020ADF808004FF48270ADF80A00E7
:101940000020ADF80C00ADF80E00ADF810004FF41B
:101950000070ADF812002020ADF814000020ADF8A2
:1019600016000720ADF8180002A9E148FFF78CFB2C
:101970000121DF48FFF72DFC07B000BD10B504467C
:1019800000BF0221DA48FFF7A8FC0028F9D0214661
:10199000D748FFF74FFC00BF0121D548FFF79DFC5A
:1019A0000028F9D0D248FFF747FCC0B210BD70B58F
:1019B00005460C464021CD48FEF7CDFE8021CB48A0
:1019C000FEF7C9FE2846FFF7D9FF06462046FFF777
:1019D000D5FF8021C548FEF7BCFE304670BD70B50E
:1019E00004464021C148FEF7B6FE8021BF48FEF7FD
:1019F000B2FE2046FFF7C2FFFF20FFF7BFFF0546FC
:101A00008021BA48FEF7A5FE284670BD2DE9F041B9
:101A100007460D4616464021B448FEF79CFE80213D
:101A2000B248FEF798FE3846FFF7A8FF804600242C
:101A300005E0FF20FFF7A2FF2855601CC4B2B442A6
:101A4000F7DB8021A948FEF784FE4046BDE8F0811F
:101A50002DE9F04107460C4615464021A348FEF704
:101A60007AFE8021A148FEF776FE3846FFF786FF12
:101A70008046002605E014F8010BFFF77FFF701C7D
:101A8000C6B2AE42F7DB80219848FEF762FE4046C0
:101A9000BDE8F08110B540219448FEF75CFE0522B8
:101AA00094492A20FFF7D4FF01212120FFF77FFF6F
:101AB00001212220FFF77BFF28212520FFF777FF58
:101AC00004213120FFF773FF0F212620FFF76FFF5E
:101AD0000F212020FFF76BFF40218448FEF739FEDD
:101AE00010BD10B540218148FEF735FE0522824920
:101AF0003020FFF7ADFF05227E492A20FFF7A8FF1F
:101B000001212120FFF753FF01212220FFF74FFF82
:101B10001A212420FFF74BFF28212520FFF747FF3C
:101B20000F212620FFF743FF0E212020FFF73FFF64
:101B300040216E48FEF70DFE4FF6FF70FFF7B8FE2E
:101B400010BD1FB56DA103C9CDE90201052202A98F
:101B50003020FFF77DFF052269461020FFF756FF72
:101B6000002406E01DF80400C22800D003E0601C39
:101B7000C4B2052CF6DB00BF052C02D1012004B055
:101B800010BD0020FBE770B5054640215748FEF721
:101B9000E2FD04222946A020FFF75AFF40215348C6
:101BA000FEF7D7FD00BF4FF480715048FEF7B7FD38
:101BB0000028F8D10720FFF712FF0446214627200E
:101BC000FFF7F5FEFF21E120FFF7F1FE14F0100F03
:101BD00001D0102070BD14F0200F01D02020F9E7B3
:101BE0000020F7E770B5054640214048FEF7B1FDFB
:101BF00000BF4FF480713D48FEF791FD0028F8D1F9
:101C000040213A48FEF7A7FD0720FFF7E8FE04460B
:101C100021462720FFF7CBFE14F0400F0AD0042204
:101C200029466120FFF7F2FEFF21E220FFF7BFFE09
:101C3000402070BD0020FCE72DE9F04FE3B031A15A
:101C4000D1E901030A68C968599357925A9158908B
:101C5000304B0FCB40AC0FC42C222FA109A801F0B0
:101C6000A5FD0DF12E0A0DF12F080DF1300B0DF130
:101C700031000890441C0D3007902C2002F040FEEB
:101C800006462C2002F03CFE074614A957A800F097
:101C90007BFF202001F032FD002505E009A8405D12
:101CA00054A94855681CC5B20A2DF7DB01208AF8F3
:101CB000000001F019FD88F8000000208BF80000FA
:101CC00000210898017098F80000629001A800F0C7
:101CD000EDFE182201A95BA801F068FD19A05B992F
:101CE00002F0E2F819A035E0000C014000200140AC
:101CF000003800402E00002029000020C2C2C2C2CD
:101D0000C2000000010300050005040104050102F2
:101D1000030405066C4900080103000500050401E1
:101D20000405007B0000020001070005000101031B
:101D3000040500000000000000000000000000009A
:101D40000000000032302564C4EA20002564D4C2BB
:101D5000200000005C9902F0A7F8FEA05D9902F057
:101D6000A3F8FEA05E9902F09FF8FEA05F9902F032
:101D70009BF8FEA0609902F097F8022020704FF4C3
:101D80007A715B9890FBF1F201FB1200642190FBE9
:101D9000F1F060705B9890FBF1F201FB12000A21F8
:101DA00090FBF1F0A0705B9890FBF1F201FB120048
:101DB000E0705C9890FBF1F020715C9890FBF1F280
:101DC00001FB120060715D9890FBF1F0A0715D98CD
:101DD00090FBF1F201FB1200E0715E9890FBF1F0D4
:101DE00020725E9890FBF1F201FB120060725F9826
:101DF00090FBF1F0A0725F9890FBF1F201FB1200F2
:101E0000E072609890FBF1F02073609890FBF1F223
:101E100001FB1200607300250DE009A905F10A001D
:101E2000085C50A9485509A905F11A00085C4CA99D
:101E30004855681CC5B2102DEFDB48AA50A914A85C
:101E400000F057FF44AA4CA914A800F052FFC9A003
:101E500002F02AF8002506E054A8415DCAA002F06D
:101E600023F8681CC5B20A2DF6DBC8A002F01CF8E6
:101E7000002506E050A8415DC3A002F015F8681CDB
:101E8000C5B2102DF6DBC1A002F00EF8002506E069
:101E90004CA8415DBCA002F007F8681CC5B2102D2B
:101EA000F6DBBAA002F000F8FFF71BFE032000F0FB
:101EB00041FA54A8FFF767FE619055A8FFF763FE4B
:101EC000619056A8FFF75FFE619057A8FFF75BFE91
:101ED000619048A8FFF757FE619049A8FFF753FEAD
:101EE00061904AA8FFF74FFE61904BA8FFF74BFEA9
:101EF000619044A8FFF747FE619045A8FFF743FEB5
:101F0000619046A8FFF73FFE619047A8FFF73BFEB0
:101F10006190FFF7BFFD54A8FFF764FE619055A8DC
:101F2000FFF760FE619056A8FFF75CFE619057A82E
:101F3000FFF758FE619048A8FFF754FE619049A84A
:101F4000FFF750FE61904AA8FFF74CFE61904BA846
:101F5000FFF748FE619044A8FFF744FE619045A852
:101F6000FFF740FE619046A8FFF73CFE619047A84E
:101F7000FFF738FE619001A800F098FD182201A932
:101F80005BA801F013FC48AA48A914A800F054FF6C
:101F900044AA44A914A800F04FFF002505E054A866
:101FA000405D09A94855681CC5B20A2DF7DB00251C
:101FB0000CE048A8415D05F10A0009AA115444A8A3
:101FC000415D05F11A001154681CC5B2102DF0DBFB
:101FD0006FA001F069FF20784FF47A71484361786F
:101FE00001EBC10202EB011100EB8100A17801EBD2
:101FF000810100EB4100E17808447061607921794A
:1020000001EB810100EB41003061E079A17901EB46
:10201000810100EB4100F060607A217A01EB8101DF
:1020200000EB4100B060E07AA17A01EB810100EBA6
:1020300041007060607B217B01EB810100EB41007E
:1020400030605E98B860609838605F9878605D989E
:10205000F8605C9838615B9800F5FA607861384602
:1020600001F054FB0390304601F050FB02900399BD
:1020700002F035FCCDE9040101F0CEFB8146494672
:1020800046A001F011FFB9F1000001DB014600E0BC
:1020900041423C295CDC9AF80000012858D19BF8A9
:1020A00000106298401C8142F8D100208AF800009C
:1020B00098F80000401CC0B288F800008BF80000BF
:1020C00001F012FB88F8000001A800F0EFFC1822D4
:1020D00001A95BA801F06AFB4FF47A715B9890FB51
:1020E000F1F020705B9890FBF1F201FB120064218B
:1020F00090FBF1F060704FF47A715B9890FBF1F215
:1021000001FB1200642190FBF1F201FB12000A2195
:1021100090FBF1F201FB1200A0705B9890FBF1F2D2
:1021200001FB1200E0705C9890FBF1F020715C986C
:1021300090FBF1F201FB120060715D9890FBF1F0F1
:10214000A0715D9890FBF1F201FB1200E0712DE0AF
:10215000A1E000002564C8D5200000002564CAB1B4
:10216000200000002564B7D6200000002564C3EBE2
:10217000200A0000B7A2CBCDB5BDB5C4CAFDBEDDF7
:10218000B0FCCEAAA3BA0A00256400000A00000031
:10219000D6A1D6D8BDA8CDEAB3C90A00256420646B
:1021A0006966665F74696D65200A00005E9890FB41
:1021B000F1F020725E9890FBF1F201FB1200607268
:1021C0005F9890FBF1F0A0725F9890FBF1F201FB39
:1021D0001200E072609890FBF1F02073609890FB21
:1021E000F1F201FB1200607300250DE009A905F171
:1021F0000A00085C50A9485509A905F11A00085CB5
:102200004CA94855681CC5B2102DEFDB48AA50A94F
:1022100014A800F06EFD44AA4CA914A800F069FDB2
:10222000FFF75FFC052000F085F854A8FFF7ABFC32
:10223000619055A8FFF7A7FC619056A8FFF7A3FC93
:10224000619057A8FFF79FFC619048A8FFF79BFC9F
:10225000619049A8FFF797FC61904AA8FFF793FCAB
:1022600061904BA8FFF78FFC619044A8FFF78BFCAF
:10227000619045A8FFF787FC619046A8FFF783FCB3
:10228000619047A8FFF77FFC619004A001F00CFE6D
:1022900007A001F009FE63B0BDE8F08F7368616BC1
:1022A0006568616E6420696E6974210A000000002F
:1022B000CAE4C8EBD1E9D6A4C2EB3A0010B56FF07E
:1022C0000400FEF78FF82D4800682D49B0FBF1F0AF
:1022D0002C4908700846007800EB4001C1EBC010A3
:1022E0004FF6FF7101EAC0002749088010BD014682
:1022F000244A12784A434FF0E0235A6100229A613F
:102300001A46126942F001021A6100BF4FF0E02242
:10231000106910F0010F02D010F4803FF6D04FF09A
:10232000E022126922F001024FF0E0231A6100223C
:102330009A6170470146144A12884A434FF0E023DD
:102340005A6100229A611A46126942F001021A612A
:1023500000BF4FF0E022106910F0010F02D010F41E
:10236000803FF6D04FF0E022126922F001024FF0D8
:10237000E0231A6100229A617047000000000020EB
:1023800000127A003C0000203E00002008B54FF407
:10239000C060FDF7D7FF0A208DF8000000208DF8FF
:1023A00001008DF8020001208DF803006846FDF75A
:1023B000CEFF08BD0EB501214120FEF7D7FDFFF786
:1023C000E5FF1020ADF8080048208DF80B0002A9A9
:1023D0000A48FEF713F904210846FEF723FA1020F5
:1023E000009000208DF804000C208DF805000120DD
:1023F0008DF806006846FEF721F80EBD0018014072
:1024000070B504460E4626B12021FE48FEF7A1F91C
:1024100003E02021FB48FEF79EF90821F948FEF76A
:102420009AF9002517E04021F648FEF794F914F0D8
:10243000800F04D08021F348FEF78BF903E0802160
:10244000F048FEF788F94021EE48FEF782F9600671
:10245000040E681CC5B2082DE5DB0821E948FEF72B
:1024600078F92021E748FEF774F970BD70B504468D
:102470000D4605F1B001C8B20021FFF7C1FF1021E0
:1024800041EA14100021FFF7BBFF04F00F0141F0F7
:1024900001000021FFF7B4FF70BD10B500218D20B1
:1024A000FFF7AEFF00211420FFF7AAFF0021AF20A5
:1024B000FFF7A6FF10BD10B500218D20FFF7A0FF8C
:1024C00000211020FFF79CFF0021AE20FFF798FFAE
:1024D00010BD70B5002419E004F1B001C8B20021AC
:1024E000FFF78EFF00210220FFF78AFF0021102056
:1024F000FFF786FF002505E001210020FFF780FFA0
:10250000681CC5B2802DF7DB601CC4B2082CE3DB6D
:1025100070BD2DE9F04107460E4690460025002487
:10252000A8F12000C5B27F2F02DD0027B01CC6B283
:1025300031463846FFF79AFF002408E004EB051106
:10254000B14A505C0121FFF75BFF601CC4B2082C4C
:10255000F4DB701CC1B23846FFF788FF002409E0A5
:1025600004EB05110831A84A505C0121FFF748FF30
:10257000601CC4B2082CF3DBBDE8F08110B5024644
:10258000012000E050430B00A1F10104E1B2F9D1B8
:1025900010BD2DE9FF5F074691461D460E9E4FF088
:1025A000000A002433E0281B401EC1B20A20FFF7B6
:1025B000E5FFB9FBF0F00A21B0FBF1F201FB1208D4
:1025C000BAF1000F13D1681EA04210DDB8F1000F60
:1025D0000BD1B34606EBDB71491001FB0471C8B2A5
:1025E00020220199FFF795FF0FE04FF0010AB34653
:1025F00006EBDB71491001FB0471C8B208F1300130
:10260000CAB20199FFF785FF00BF601CC4B2AC429B
:10261000C9DBBDE8FF9F2DE9F04104460F46154692
:1026200000260EE0AA5D39462046FFF772FF04F14E
:102630000800C4B2782C02DD0024B81CC7B2701C9C
:10264000C6B2A85D0028EDD1BDE8F0812DE9F041CA
:1026500080460E461546002731464046FFF706FFE6
:1026600000240AE0694A02EB8511085D0121FFF7A9
:10267000C7FE781CC7B2601CC4B2102CF2DB701C01
:10268000C1B24046FFF7F2FE00240CE06900491C8D
:102690005E4A02EB4111085D0121FFF7B1FE781C93
:1026A000C7B2601CC4B2102CF0DBBDE8F0812DE98C
:1026B000F05F06460F4690461C46DDF828A04FF016
:1026C000000BE11704EB5171C910B4EBC10106D145
:1026D0002046E11704EB5171C1F3C70506E020461F
:1026E000E11704EB5171C910491CCDB23D4615E00C
:1026F00029463046FFF7BAFEB1460BE059460BF1CA
:10270000010B1AF801000121FFF77AFE09F101001F
:1027100000F0FF09C145F1DB681CC5B2A542E7DB4B
:10272000BDE8F09F08B501214FF49470FEF71EFC40
:102730004FF4FC70ADF8000010208DF8030003206A
:102740008DF8020069462F48FDF758FF4FF4FC71E1
:102750002C48FDF7FEFF0320ADF8000069462C4829
:10276000FDF74CFF03212A48FDF7F3FF4FF400402B
:10277000ADF8000069462748FDF740FF4FF40041DF
:102780002448FDF7E6FF10211E48FDF7E2FF642014
:10279000FFF7D0FD10211B48FDF7DDFF6420FFF798
:1027A000C9FD10211748FDF7D4FF0021AE20FFF727
:1027B00027FE00210220FFF723FE00211020FFF753
:1027C0001FFE00214020FFF71BFE00218120FFF7A4
:1027D00017FE0021CF20FFF713FE0021A120FFF7F5
:1027E0000FFE0021C820FFF70BFE0021A620FFF7F7
:1027F00007FE0021A820FFF703FE00213F20FFF77E
:10280000FFFD09E000140140A44B00084000002037
:10281000001001400020014000218120FFF7F0FD61
:102820000021FF20FFF7ECFD0021D320FFF7E8FD9A
:1028300000210846FFF7E4FD0021D520FFF7E0FD69
:1028400000218020FFF7DCFD0021D920FFF7D8FD13
:102850000021F120FFF7D4FD0021DA20FFF7D0FDA1
:1028600000211220FFF7CCFD0021DB20FFF7C8FD7F
:1028700000214020FFF7C4FD00212020FFF7C0FD0C
:1028800000210220FFF7BCFD00218D20FFF7B8FDDD
:1028900000211420FFF7B4FD0021A420FFF7B0FDB4
:1028A0000021A620FFF7ACFD0021AF20FFF7A8FD17
:1028B0000021AF20FFF7A4FDFFF70BFE0021084623
:1028C000FFF7D4FD08BD000008B501210820FEF780
:1028D0004DFB01214805FEF756FBC020ADF8000076
:1028E00003208DF802001C208DF8030069468848FB
:1028F000FDF784FE08BD1FB50020ADF804004BF6BF
:10290000FF70ADF806000A20ADF808004FF48060B3
:10291000ADF80A000001ADF80C007E480090694651
:102920007D48FDF7D0FF01217B48FEF74AF81FBD27
:1029300070B504460D4600BF4FF400317648FEF7EF
:1029400067F90028F8D101217348FEF75EF800BF4F
:1029500072497148FEF73AF90028F9D00022A22105
:102960006D48FEF7A8F800BF6D496B48FEF72EF9D9
:102970000028F9D021466848FEF797F800BF68495B
:10298000891C6548FEF722F90028F8D029466248DC
:10299000FEF78BF801216048FEF743F870BD70B573
:1029A000044601215C48FEF730F800BF5B495A48F5
:1029B000FEF70CF90028F9D00022A2215648FEF7B4
:1029C0007AF800BF56495448FEF700F90028F9D0BC
:1029D00021465148FEF769F800BF5149891C4E480D
:1029E000FEF7F4F80028F8D001214B48FEF70DF867
:1029F00000BF4A494848FEF7E9F80028F9D001220B
:102A0000A3214548FEF757F800BF4449491C4248F6
:102A1000FEF7DCF80028F8D000BF40493F313E48BF
:102A2000FEF7D4F80028F8D03B48FEF740F80546FA
:102A300000213948FEF701F801213748FDF7F1FF81
:102A4000284670BD2DE9F04704460D4616461F4640
:102A5000DDE90889FFF738FFFFF74DFF0021084641
:102A6000FFF766FF00210120FFF762FF09F0FF0179
:102A70000220FFF75DFF08F0FF010320FFF758FF7A
:102A8000F9B20420FFF754FFF1B20520FFF750FF21
:102A9000E9B20720FFF74CFFE1B20820FFF748FF3B
:102AA00000210846FFF744FFBDE8F08730B587B046
:102AB00005460220FFF773FF044604F07F040694E6
:102AC0000320FFF76CFF044604F07F040594042004
:102AD000FFF765FF044604F03F0404940520FFF768
:102AE0005EFF044604F03F0403940720FFF757FFFE
:102AF000044604F01F0402940820FFF750FF044628
:102B00000194182201A9284600F050FE07B030BDFC
:102B1000000C0140801A0600005400400100030030
:102B200082000700417842794270427A4271427BCA
:102B3000427241738178827A827081728179827B5C
:102B400082718173C17BC27AC273C279C272C27848
:102B5000C271C1707047417B427A427342794272BE
:102B6000427842714170817B827982738171817A6E
:102B7000827882728170C178C279C270C27AC27161
:102B8000C27BC272C1737047F8B50446002314E0DB
:102B900014F8235001F8015B9D006D1C655D01F880
:102BA000015B9D00AD1C655D01F8015B9D00ED1CA6
:102BB000655D01F8015B5D1CEBB2042BE8DB081FCF
:102BC000002392E010F8016BFB4DAD5D8DF80350D2
:102BD00010F8016BF84DAD5D8DF8005010F8016BE9
:102BE000F54DAD5D8DF8015010F8016BF24DAD5D06
:102BF0008DF802509DF80050F04EF65C75408DF84F
:102C00000050A1F1100212F8015B9DF800607540C0
:102C100001F8015B12F8015B9DF80160754001F855
:102C2000015B12F8015B9DF80260754001F8015BE1
:102C300012F8015B9DF80360754001F8015B10F824
:102C4000015B12F8017B7D4001F8015B10F8015B2C
:102C500012F8017B7D4001F8015B10F8015B12F86E
:102C6000017B7D4001F8015B10F8015B12F8017BEC
:102C70007D4001F8015B10F8015B12F8017B7D409B
:102C800001F8015B10F8015B12F8017B7D4001F84F
:102C9000015B10F8015B12F8017B7D4001F8015BDC
:102CA00010F8015B12F8017B7D4001F8015B10F820
:102CB000015B12F8017B7D4001F8015B10F8015BBC
:102CC00012F8017B7D4001F8015B10F8015B12F8FE
:102CD000017B7D4001F8015B10F8015B12F8017B7C
:102CE0007D4001F8015B5D1CEBB20A2BFFF66AAF79
:102CF000F8BD2DE9FF47064689461546002407E042
:102D000016F8010B19F8041048402855601CC4B28D
:102D1000102CF5DB4FF0010871E0002406E0285D7F
:102D2000A549085C0DF80400601CC4B2102CF6DB49
:102D30006846FFF7F7FE002450E01DF80400611C10
:102D40001DF801104840A11C1DF801104840E11C6D
:102D50001DF8011080EA01071DF80410621C1DF81F
:102D6000022081EA020000F04AF91DF804104840F0
:102D700078402855611C1DF80110A21C1DF8022086
:102D800081EA020000F03BF9611C1DF80110484087
:102D90007840611C6854A11C1DF80110E21C1DF84C
:102DA000022081EA020000F02AF9A11C1DF801109E
:102DB00048407840A11C6854E11C1DF801101DF822
:102DC000042081EA020000F01AF9E11C1DF801104C
:102DD00048407840E11C6854201DC4B2102CACDB84
:102DE000002406E016F8010B295D48402855601CB8
:102DF000C4B2102CF6DB08F1010000F0FF08B8F1B6
:102E00000A0F8ADB002405E0285D6B49085C285521
:102E1000601CC4B2102CF7DB2846FFF783FE0024A9
:102E200006E016F8010B295D48402855601CC4B225
:102E3000102CF6DBBDE8FF872DE9FF5F074615463E
:102E4000A037002405E0285D395D48402855601C06
:102E5000C4B2102CF7DB103F2846FFF77CFE00249D
:102E600005E0285D5649085C2855601CC4B2102C4A
:102E7000F7DB4FF0010AB2E0002406E0285D395D7F
:102E800048400DF80400601CC4B2102CF6DB00248E
:102E90008AE01DF80400611C1DF801104840A11CC7
:102EA0001DF801104840E11C1DF8011080EA0106E0
:102EB0001DF80410621C1DF8022081EA020000F0D7
:102EC0009EF81DF80410714048402855611C1DF8FB
:102ED0000110A21C1DF8022081EA020000F08FF808
:102EE000611C1DF8011071404840611C6854A11C10
:102EF0001DF80110E21C1DF8022081EA020000F01A
:102F00007EF8A11C1DF8011071404840A11C6854B6
:102F1000E11C1DF801101DF8042081EA020000F0F8
:102F20006EF8E11C1DF8011071404840E11C685426
:102F30001DF80410A21C1DF8022081EA020000F016
:102F40005EF8834600F05BF88046611C1DF80110B6
:102F5000E21C1DF8022081EA020000F050F88346CE
:102F600000F04DF8814688EA090000F048F806466E
:102F7000285D86EA080148402855601C285C86EADE
:102F800009014840611C6854A01C285C86EA0801BD
:102F90004840A11C6854E01C285C86EA09014840AE
:102FA000E11C6854201DC4B2102CFFF672AF2846F5
:102FB000FFF7D1FD00240BE00A05002000050020EA
:102FC0000A060020285D1349085C2855601CC4B21D
:102FD000102CF7DB103F0AF1010000F0FF0ABAF1F4
:102FE0000A0FFFF649AF002405E0285D395D48402F
:102FF0002855601CC4B2102CF7DBBDE8FF9F0146CA
:1030000011F0800F03D01B2080EA410000E048004F
:10301000C0B270470A06002010B54FF4C060FDF73B
:1030200091F910BD10B54FF4A060FDF78BF910BDFC
:10303000014600BF704700BF6B4A128812F0400F74
:10304000FAD0C2B2684B1B1D1A80704710B5C82158
:10305000664800F0C4FB00206549088010BD10B52B
:1030600086B00446012144F20400FDF77FFF4FF4CF
:103070000070ADF8140003208DF8160018208DF8AC
:10308000170005A95B48FDF7B9FA4FF48060ADF869
:10309000140004208DF8170005A95648FDF7AEFA74
:1030A00025208DF8000003208DF801008DF8020026
:1030B00001208DF803006846FDF749F901940020CE
:1030C000ADF80800ADF80A00ADF80C00ADF810003E
:1030D0000C20ADF80E0001A94348FEF778F9012253
:1030E00040F225514048FEF70AFA01213E48FEF71A
:1030F000FAF9FFF7ABFF06B010BD10B540F225514D
:103100003948FEF7E1FA002839D03748FEF75CFA73
:10311000C4B2242C02D100203549088034480188EB
:103120000088401C324A10803048445400782428DB
:103130001ED12E4800794D281AD12C4840794328B9
:1031400016D10A2C14D150212B4800F048FB2848F6
:1031500002882649284800F029FB0120264981F8E9
:103160005000002022490880C821204800F037FB89
:103170001F480088C82802DBC8201D49088010BDF0
:1031800010B504462146194800F034FB08B101206F
:1031900010BD0020FCE710B50020174981F8500051
:1031A00081F8510081F87F005021134800F017FB8F
:1031B00011485230002101604160018181720B3061
:1031C00001604160018181725D38A0F868106A3049
:1031D0000160416081606A38A0F876107830016043
:1031E0008180817110BD000000380140340700204B
:1031F0000C07002000080140FC070020044603E003
:103200002146D2A000F050FEFAE7F0B587B00026C4
:10321000D14890F8500000287DD00020CE4981F898
:103220005000CEA000F040FECB4800F02DFE00BFC5
:1032300066E046B9CEA1C84800F0DCFA04005DD1D2
:103240000120FFF7DBFF641CC9A1204600F0D2FA81
:10325000050050D00A2E36D2DFE806F035050C12F4
:1032600019202735352E2A1B2146BB48523000F045
:103270009DFA29E02A1B214606A800F097FA23E0D0
:103280002A1B2146B4485D3000F090FA1CE02A1B4E
:103290002146B148683000F089FA15E02A1B214622
:1032A000AD486A3000F082FA0EE02A1B2146AA4897
:1032B000763000F07BFA07E02A1B2146A6487830DA
:1032C00000F074FA00E000BF00BF2C460120A249C4
:1032D00081F851009DF81800412803D1012081F8A0
:1032E0007F0007E09DF81800562803D100209A4976
:1032F00081F87F0002E00220FFF780FF701CC6B259
:10330000092E96DD944890F857003038924991F88C
:103310005610303900E0C3E001EB810100EB4100C1
:10332000944948618C4890F8550030388A4991F8A2
:103330005410303901EB810100EB41008D490861E7
:10334000854890F853003038834991F8521030394D
:1033500001EB810100EB41008649C8607E4890F88E
:10336000790030387C4991F87810303901EB8101CF
:1033700000EB41007F498860774890F87B00303847
:10338000754991F87A10303901EB810100EB410069
:1033900078494860704890F87D0030386E4991F85F
:1033A0007C10303901EB810100EB4100714908606C
:1033B0000846016870A000F077FD6E48416872A071
:1033C00000F072FD6B48816873A000F06DFD6948E4
:1033D000C16875A000F068FD6648016976A000F03C
:1033E00063FD6448416978A000F05EFD7BA000F0B9
:1033F0005BFD604840695F4909695E4FCDE9001097
:10340000FB68BA6879683868FFF71CFB78A000F0A1
:103410004BFD3846016879A000F046FD384641680A
:1034200078A000F041FD3846816878A000F03CFDAE
:103430003846C16877A000F037FD3846016977A0AB
:1034400000F032FD3846416976A000F02DFD01A85C
:10345000FFF72CFB182201A9744800F0A7F974A00B
:1034600000F022FD7148016864A000F01DFD6F4866
:10347000416864A000F018FD6C48816863A000F00A
:1034800013FD6A48C16863A000F00EFD674801693A
:1034900062A000F009FD6548416962A000F004FDEA
:1034A00007B0F0BD10B52C4890F8510000284CD062
:1034B0000020294981F8510061A000F0F5FC264860
:1034C000523000F0E1FC64A000F0EEFC63A000F0DC
:1034D000EBFC2148783000F0D7FC5FA000F0E4FC62
:1034E0001D4890F87F0000282CD000201A4981F850
:1034F0007F0060A000F0D8FC17485D3000F0C4FCED
:1035000055A000F0D1FC61A000F0CEFC124868305C
:1035100000F0BAFC50A000F0C7FC61A000F0C4FCB1
:103520000D486A3000F0B0FC4BA000F0BDFC62A07A
:1035300000F0BAFC0848763000F0A6FC46A000F087
:10354000B3FC02E061A000F0AFFC10BD4552524F49
:103550005225640D0A000000FC0700202A2A2A2AAE
:103560002A2A2A2A2A2A2A2A2A2A0D0A00000000A0
:103570002C0000007C0800200A746F6461792E79A9
:103580006561722025640000746F6461792E6D6F2F
:103590006E74682025640000746F6461792E646124
:1035A0007920256400000000746F6461792E686FD3
:1035B0007572202564000000746F6461792E6D6956
:1035C0006E74202564000000746F6461792E736549
:1035D000636F6E64202564200A000000475053206A
:1035E000CAB1BCE4D2D1C9E8D6C3200A00000000A9
:1035F000475053CAB1BCE4203A0000002564C4EA35
:10360000200000002564D4C2200000002564C8D535
:10361000200000002564CAB1200000002564B7D650
:10362000200000002564C3EB200A0000940800205D
:1036300070636638353633CAB1BCE4A3BA00000003
:10364000536176655F446174612E55544354696DCE
:1036500065203D20000000000D0A000053617665E2
:103660005F446174612E55544344617465203D206C
:1036700000000000536176655F446174612E6C61E7
:10368000746974756465203D20000000536176659F
:103690005F446174612E4E5F53203D2000000000A6
:1036A000536176655F446174612E6C6F6E676974F7
:1036B000756465203D200000536176655F44617448
:1036C000612E455F57203D200000000047505320E9
:1036D00044415441206973206E6F74207573656690
:1036E000756C6C210D0A00000649074A08685043B2
:1036F00043F23902104408604008704701490860ED
:1037000070470000180700206D4EC64138B5D0E95B
:103710000221491E01EB410102EBC1014268C1EBEC
:10372000011102EB81010268C1EB011102EB81037F
:10373000D0E9042101EB410102EB8101A1F55271B5
:10374000302491FBF4F2154D04FB1211554303EBA9
:10375000C51300931A2902DB114A1A4400920C2364
:1037600091FBF3F20F4C009D544303FB121105EB48
:10377000C4140D4B009408E0491E40F2A3245A5C87
:103780006243009C04EBC21200920029F4DC014663
:10379000684600F0B7F8009838BD00003F0C0F00F5
:1037A0008051010067C203009451000840EA010300
:1037B0009B0703D009E008C9121F08C0042AFAD2E7
:1037C00003E011F8013B00F8013B521EF9D27047AB
:1037D000D2B201E000F8012B491EFBD27047002253
:1037E000F6E710B513460A4604461946FFF7F0FF00
:1037F000204610BD30B505462A460B4612F8010B8F
:1038000013F8014B08B1A042F8D01CB1002802D037
:103810006D1CF1E7284630BD70B5C1F30A5201F0C6
:1038200000450024C1F3130140F2FF3341F480113D
:103830009A4201DA002070BD40F233439A42A2F26C
:10384000334203DC524200F04DF800E090402C433C
:10385000F1D0404270BD30B50B4601460020202219
:10386000012409E021FA02F59D4205D303FA02F58D
:10387000491B04FA02F52844151EA2F10102F1DCED
:1038800030BD2DE9F05F0546002092469B468846F4
:103890000646814640241BE02846414647462246CC
:1038A00000F020F853465A46C01A914110D31146F1
:1038B0001846224600F03AFA2D1A67EB01084F46E7
:1038C00022460120002100F031FA17EB00094E4199
:1038D000201EA4F10104DFDC484631462A46434657
:1038E000BDE8F09F202A04DB203A21FA02F00021F3
:1038F000704721FA02F3D040C2F120029140084300
:103900001946704730B503683C22B3FBF2F002FB66
:1039100010330B60B0FBF2F302FB13001824486075
:10392000B3FBF4F004FB10328A60021D0723B2FBE4
:10393000F3F403FB14228A61820002F66C3240F237
:10394000B555B2FBF5F404F144000346486105FBAC
:1039500014208008C8613B2802D39A0700D0401C7D
:103960000022074C13460A61E25C824203D8801AA7
:103970005B1C0B61F8E7401CC860084630BD0000C6
:10398000A05100082DE9FE4F804681EA0300C00FD8
:103990000C46009021F0004123F00045B8EB0200F6
:1039A000A94105D24046214690461C460B46024698
:1039B00023F00040104304D14046214603B0BDE847
:1039C000F08F270DC7F30A00C3F30A510290401A83
:1039D0000190402866DAC3F3130040F4801B00987E
:1039E000924620B10023D2EB030A63EB0B0B019844
:1039F0005946C0F14002504600F098F906460D467F
:103A000050465946019A00F0A0F910EB08006141B8
:103A1000002487EA115284EAE7731A433BD0009AE4
:103A20003AB3019A012A4FEA075210DC001B61EBFE
:103A300002014FF0004202EA0752CDE90042001CA9
:103A400041F5801132462B4600F09EF9B6E7001B87
:103A500061EB0201001C41F5801300185B41201846
:103A6000A2F5001747EB030140EAD570B6196D4186
:103A700011E06D084FEA360645EAC0754FEA075275
:103A8000001B61EB0201001C41F5801149084FEA5F
:103A900030000019514132462B4603B0BDE8F04FCB
:103AA00000F065B90098012240000023D0EB02022B
:103AB00063EBE073009821464FEAE074B8EB000036
:103AC00061EB0401E9E783F000435BE781F000412B
:103AD00058E72DE9FE4F81EA030404F0004421F089
:103AE000004100944FF0000B23F0004350EA010422
:103AF00002D052EA030404D10020014603B0BDE81D
:103B0000F08FC3F30A54C1F30A552C44A4F2F334E2
:103B10000194A0FB0254C1F3130141F48011C3F3DB
:103B2000130343F4801301FB024400FB034E840A99
:103B3000970A44EA815447EA8357A4FB0768029531
:103B40008D0A05FB07854FEA932C04FB0C542705CF
:103B5000029D4FEA065847EA1637B5EB08056EEBAB
:103B6000070C870E920E47EA811742EA8312A7FBE1
:103B70000201B6EB0B0164EB00042B0D43EA0C339E
:103B80005E1844EB1C50DA465146E7FB0201C5F3D0
:103B900013044FEA0B3343EA14534FEA0432019CF7
:103BA00043EA0603A4F10C040294009CCDE900B49E
:103BB00000F0EAF8A2E72DE9F04D81EA030404F0F1
:103BC000004B21F0004514464FF0000A23F000415D
:103BD00050EA050220D054EA01021DD0C5F30A576D
:103BE0000246C5F31303C1F31300C1F30A5640F4B0
:103BF000801543F48013A7EB0608101BD64608F285
:103C0000FD3873EB050002D308F1010801E09218BA
:103C10005B41B8F1000F03DA00200146BDE8F08DEA
:103C200000204FF48011064684460EE0171B73EB0C
:103C3000050705D3121B63EB050306434CEA010C91
:103C400049084FEA300092185B4150EA0107EDD174
:103C500052EA030012D082EA040083EA0501084315
:103C600003D100224FF0004308E0101BAB4102D209
:103C70000122002302E06FF0010253101AEB06004C
:103C80004CEB085110EB0A0041EB0B01BDE8F04D85
:103C900000F06DB80EB540F2334102910021CDE93C
:103CA00000110A460B4600F06FF803B000BDC1F3E7
:103CB0000A52C1F3130140F2FF3341F480119A42DA
:103CC00002DA00200146704740F233439A42A2F2E2
:103CD000334202DC5242FFF705BE00F027B8000075
:103CE00030B5002904DB4FF00044404264EB010191
:103CF000002B04DB4FF00044524264EB0303994273
:103D000008BF904230BD0000064C074D06E0E06859
:103D100040F0010394E8070098471034AC42F6D312
:103D2000FCF70AFAAC510008CC510008202A04DB49
:103D3000203A00FA02F1002070479140C2F12003BE
:103D400020FA03F3194390407047202A06DBCB1773
:103D5000203A41FA02F043EAE07306E041FA02F346
:103D6000D040C2F12002914008431946704710B577
:103D7000002B08DA401C41F1000192185B411A4304
:103D800001D120F0010010BD2DE9F04D92469B4677
:103D900011B1B1FA81F202E0B0FA80F2203290461D
:103DA000FFF7C4FF04460F4640EA0A0041EA0B0150
:103DB00053465A46084303D120463946BDE8F08DA4
:103DC000114653EA010015D0C8F140025046FFF7F2
:103DD00089FD05460E46504659464246FFF7A6FF66
:103DE000084301D0012000E00020054346EAE076C8
:103DF0002C4337430A984FEA4453A0EB08004FEA9C
:103E0000D4240A304FF0000244EA47544FEAD72541
:103E100002D500200146D1E7010510196941DDE90D
:103E2000084500196941BDE8F04DA0E770B501EB08
:103E3000020410F8015B15F0070301D110F8013BF3
:103E40002A1106D110F8012B03E010F8016B01F8DC
:103E5000016B5B1EF9D12B0705D40023521E0FD432
:103E600001F8013BFAE710F8013B02F10202A1EB75
:103E7000030303E013F8015B01F8015B521EF9D55F
:103E8000A142D6D3002070BD0FB4054B10B503A9D5
:103E9000044A029800F080F910BC5DF814FB0000A1
:103EA00037300008140700200FB4054B10B503A9E4
:103EB000044A029800F0C6F810BC5DF814FB00003C
:103EC000373000081407002002E008C8121F08C19C
:103ED000002AFAD170477047002001E001C1121F8B
:103EE000002AFBD1704700002DE9FF5FDDE90220C9
:103EF000010DDDF838B0024310D10F9801244CA217
:103F0000012808D0002100980F9BC0E90021C0E9DA
:103F10000243BDE8FF9F6FEA0B01F4E7A1F2FF3116
:103F200044F6105041430D140F9801280ED0A5EB14
:103F30000B00401C4FF000043E4EDFF8FC90B0F147
:103F4000000AA04605DACAF1000717E0CBF100002D
:103F5000F0E7074612E0F80707D02246334640460E
:103F60004946FFF7B6FD804689462246334610464D
:103F70001946FFF7AEFD04460E467F10002FEAD12A
:103F8000DDE90201BAF1000F42464B4602DAFFF7C3
:103F9000A0FD01E0FFF70FFE04460E460022274B6E
:103FA000FFF79EFE03D84FF0FF30014607E00022E6
:103FB000234B20463146FFF7E5FCFFF778FE10243F
:103FC00009E0002C0ADB0A220023FFF75AFC019BC0
:103FD00030321A55641E50EA0102F2D1641C019A73
:103FE000C4F1110314440F9A012A09D00122084395
:103FF00001D15B450FDD4FF0000205F101050DE039
:10400000084303D1A3EB0B056D1E09E000204FF020
:10401000110B0F9088E701DA00226D1E002A83D071
:1040200000980F99C0E90231C0E9004571E700002E
:1040300030000000000024400000F03F0000F0438A
:104040000000E03F2DE9FF4F89B09B460446002564
:1040500097E0252833D10027641C4E49B846012239
:104060002378203B02FA03F0084202D00743641C85
:10407000F6E720782E2819D114F8010F47F004072D
:104080002A280ED06FF02F022078A0F130010929E4
:104090000CD808EB880102EB410100EB0108641C1D
:1040A000F2E70A98641C50F8048B0A9020780028E4
:1040B0006BD0642808D0692806D0752820D05A46CD
:1040C0000B9990476D1C5BE00A994FF00A0901C9F2
:1040D0000A91002804DAC0F100004FF02D0102E03F
:1040E000390504D52B218DF82010012103E0F907B3
:1040F00004D02021F7E78A4608AE0EE00021FAE757
:104100000A994FF00A0901C90A91F7E74946FFF7F2
:10411000A2FB01F1300106F8011D0028F6D1ADEB3C
:10412000060000F12009780701D44FF00108C845C6
:1041300002DDA8EB090000E000208046002706E031
:1041400008A85A46C05D0B9990476D1C7F1C5745C7
:10415000F6DB04E030205A460B9990476D1CB8F10D
:104160000001A8F10108F5DC05E016F8010B5A463C
:104170000B9990476D1CB9F10001A9F10109F4DC1C
:10418000641C207800287FF464AF0DB02846BDE899
:10419000F08F0000092801002DE9FF4F95B09B46E4
:1041A00089460646002512E2252878D10024761C8F
:1041B000F94A2746012105943378203B01FA03F0A0
:1041C000104202D00443761CF6E730782A2811D03A
:1041D0006FF02F033078A0F13002092A16D8059A23
:1041E00044F0020402EB820203EB42021044761C0C
:1041F0000590EFE759F8042B0592002A03DA5042A4
:1042000044F40054059044F00204761C30782E28C3
:1042100016D116F8010F44F004042A280DD06FF0CF
:104220002F023078A0F13003092B09D807EB870360
:1042300002EB4303C718761CF3E759F8047B761C9E
:1042400030786C280FD006DC4C2817D068280DD0A9
:104250006A2814D104E0742810D07A280FD10DE018
:1042600044F400140AE044F4801401E044F44014DF
:104270007278824202D1761C04F58014761C307864
:1042800066280BD013DC582877D009DC002875D0BD
:104290004528F6D04628F4D047281AD19FE118E0E7
:1042A000632835D0642879D0652812D197E1702829
:1042B00073D008DC6728F1D069286FD06E280DD044
:1042C0006F2806D1B5E073282CD0752875D07828D2
:1042D00074D05A46179990476D1C76E1C4F302508A
:1042E000022809D003280DD0D9F8001004280DD0D9
:1042F0000D6009F1040968E1D9F80010EA17C1E975
:104300000052F6E7D9F800100D80F2E70D70F0E7E3
:1043100019F8041B8DF8001000208DF80100EA4602
:10432000012003E059F804AB4FF0FF3061074FF074
:10433000000102D40DE008F101018846B9420FDA0C
:104340008045F8DB1AF808100029F4D108E008F1DC
:10435000010188468142FADB1AF808100029F6D1DB
:1043600005985B46A0EB080721463846179A00F0EF
:104370009EFA284400EB080507E04DE02BE10DE034
:104380001AF8010B5A4617999047B8F10108F7D26D
:104390005B4621463846179A14E142E00A22009211
:1043A000C4F302524FF0000A022A08D059F804CB95
:1043B000032A4FEAEC710AD00DE029E02AE009F166
:1043C000070121F00702F2E802C1914609E00FFA65
:1043D0008CFC4FEAEC71042A03D14FFA8CFC4FEAB3
:1043E000EC71002907DA0A460021DCF1000C61EBD0
:1043F00002012D2202E0220504D52B228DF8042093
:10440000012203E0E20701D02022F7E7904653E0C3
:104410000A2102E010220DE010214FF0000A009165
:104420000BE010224FF0000A44F004040827009229
:1044300003E008224FF0000A0092C4F30252022A5D
:1044400005D059F804CB0021032A08D009E009F16E
:10445000070121F00702F2E802C1914605E01FFAC8
:104460008CFC042A01D10CF0FF0C4FF0000822074D
:1044700022D5702827D0009B83F0100353EA0A034B
:1044800009D15CEA010206D030228DF804208DF8B3
:10449000050002229046009B83F0080353EA0A03BA
:1044A0000AD15CEA010201D1620705D530228DF8FC
:1044B00004204FF001087F1E582809D037A0039030
:1044C0000EA8029013E040228DF804200122E1E7BB
:1044D00037A0F4E753466046009AFFF7D2F98446C6
:1044E0000398825C0298A0F10100029002705CEADD
:1044F0000100EFD1029806A9A1EB000000F1200A0B
:10450000600702D524F4803400E00127574502DD1E
:10451000A7EB0A0000E0002000EB0A0100900598DC
:104520004144A0EB01000590E00306D45B46214620
:10453000179A059800F0BBF90544002706E001A88A
:104540005A46C05D179990476D1C7F1C4745F6DBA6
:10455000E0030CD55B462146179A059800F0A7F9B1
:10456000054404E030205A46179990476D1C009985
:10457000481E00900029F5DC08E0029802995A468E
:104580000078491C0291179990476D1CBAF10001FF
:10459000AAF1010AF1DC6BE1092801003031323364
:1045A000343536373839616263646566000000006F
:1045B0003031323334353637383941424344454659
:1045C0000000000000F060F9054406F101063078B3
:1045D00000287FF4E9AD19B02846BDE8F08F6207E6
:1045E00000D4062709F1070222F0070CFCE8022399
:1045F000E14603F000485FEA080C02D00FF27C2C81
:104600000DE05FEA045C02D50FF2742C07E05FEA6C
:10461000C47C02D00FF26C2C01E0AFF2700C4FF0B2
:10462000FF3823F00043CDF850C065280CD006DCDD
:10463000452809D046281DD047283ED13EE06628AF
:1046400018D0672839D139E00021112F01DB112062
:1046500000E0781CCDE9000106A90EA8FFF744FC94
:10466000DDE90F010E9A03910021009207F1010A82
:1046700004914EE04FF000400097CDE9011006A9EB
:104680000EA8FFF731FCDDE90F0203920E9B119992
:104690000022DDF80CA00093049219B907F1010182
:1046A00000EB010AB7EB0A0004D4C0F1FF3007F1B8
:1046B000010A0490AAEB0700019046E0012F00DAFE
:1046C00001270021112F01DD112000E03846CDE93E
:1046D000000106A90EA8FFF707FCDDE90F010E9AFD
:1046E0000391002104910092BA4621070CD403994A
:1046F000514500DA8A46BAF1010F05DD009AAAF1A8
:104700000101515C302908D0B84202DA10F1040FDF
:1047100006DA0121CDE9011017E0AAF10101E9E76C
:10472000002805DC049901440491AAEB000102E091
:10473000411C514500DD8A460499A0EB010000F1BF
:10474000010001904FF000400290200704D401982E
:10475000504501DBCDF8048000208DF84F00029811
:104760000DF14F07B0F1004F25D02B200E9002988D
:104770004FF0020800280CDA404202902D200E90E3
:1047800007E00A210298FFF766F83031029007F837
:10479000011DB8F10001A8F10108F2DC029800281F
:1047A000EFD1791E0E980870307800F0200040F0AC
:1047B000450007F8020D12A8A0EB070000F107085A
:1047C0001498007800B1012000EB0A01019801EB78
:1047D000E07105984144A0EB0100A0F101000590B3
:1047E000E00306D45B462146179A059800F05FF86F
:1047F00005441498007820B15A461799904705F15E
:104800000105E00323D55B462146179A059800F081
:104810004EF805441BE00498002807DBDDE903019E
:10482000884203DD0098405C179901E01799302019
:104830005A46904704986D1C401C04900198401EF5
:10484000019004D12E205A46179990476D1CBAF159
:104850000001AAF1010ADEDC05E017F8010B5A4657
:10486000179990476D1CB8F10001A8F10108F4DC1C
:104870005B462146179A0598A4E600002D0000002B
:104880002B000000200000002DE9F0410446002527
:104890001E461746880405D406E039462020B04756
:1048A00005F10105641EF8D52846BDE8F0812DE923
:1048B000F041044600251E469046C80301D5302726
:1048C00000E02027880405D506E041463846B04779
:1048D00005F10105641EF8D52846BDE8F08170B5E4
:1048E00006460846FFF7D6F904460D463046FFF760
:1048F000D1F922462B46BDE87040FFF7E4B800002E
:10490000F0B50B30154D20F007010024144A0FE0DC
:1049100003688B420BD38B4205D95E1A4318476854
:10492000C3E9006700E04368136002C004E0021DB1
:1049300010680028ECD12046002802D1286808B170
:104940000020F0BD064A07481060074A121A22F0FC
:104950000702C0E9002401202860D7E720070020D3
:104960001C070020B4080020B00A00203133303585
:104970003035343134356A726400000000000000C4
:1049800000000000002F00000000070007000014D6
:104990007F147F1400242A7F2A12006264081323E4
:1049A00000364955225000000503000000001C227B
:1049B0004100000041221C000014083E08140008B9
:1049C000083E0808000000A0600000080808080869
:1049D000000060600000002010080402003E514901
:1049E000453E0000427F400000426151494600219F
:1049F00041454B31001814127F10002745454539B9
:104A0000003C4A4949300001710905030036494913
:104A1000493600064949291E0000363600000000CC
:104A20005636000000081422410000141414141417
:104A300000004122140800020151090600324959C0
:104A4000513E007C1211127C007F49494936003EDC
:104A500041414122007F4141221C007F4949494197
:104A6000007F09090901003E4149497A007F080891
:104A7000087F0000417F4100002040413F01007F4E
:104A800008142241007F40404040007F020C027F1A
:104A9000007F0408107F003E4141413E007F09092C
:104AA0000906003E4151215E007F09192946004652
:104AB000494949310001017F0101003F4040403F29
:104AC000001F2040201F003F4038403F0063140873
:104AD000146300070870080700615149454300004E
:104AE0007F41410000552A552A55000041417F0071
:104AF0000004020102040040404040400000010266
:104B00000400002054545478007F4844443800384E
:104B10004444442000384444487F003854545418D6
:104B200000087E0901020018A4A4A47C007F0804E8
:104B300004780000447D4000004080847D00007FB8
:104B4000102844000000417F4000007C04180478D5
:104B5000007C0804047800384444443800FC2424D1
:104B600024180018242418FC007C080404080048B9
:104B70005454542000043F444020003C4040207CDA
:104B8000001C2040201C003C4030403C00442810C9
:104B90002844001CA0A0A07C004464544C4414147D
:104BA00014141414000000000000000000000000B5
:104BB00000000000000000F80000000000000033CA
:104BC0003000000000100C06100C06000000000071
:104BD0000000000040C07840C0784000043F04045A
:104BE0003F040400007088FC08300000001820FF1B
:104BF000211E0000F008F000E018000000211C0356
:104C00001E211E0000F00888700000001E212324D1
:104C10001927211010160E000000000000000000EF
:104C200000000000000000E018040200000000077F
:104C30001820400000020418E00000000040201886
:104C400007000000404080F0804040000202010F59
:104C500001020200000000F0000000000101011F3D
:104C600001010100000000000000000080B07000A1
:104C70000000000000000000000000000001010131
:104C800001010101000000000000000000303000C0
:104C9000000000000000000080601804006018069A
:104CA0000100000000E010080810E000000F1020D4
:104CB00020100F00001010F8000000000020203F1E
:104CC00020200000007008080888700000302824A8
:104CD0002221300000300888884830000018202049
:104CE00020110E000000C02010F80000000704246E
:104CF000243F240000F808888808080000192120B3
:104D000020110E0000E0108888180000000F11200C
:104D100020110E0000380808C83808000000003FC5
:104D2000000000000070880808887000001C222124
:104D300021221C0000E010080810E00000003122D1
:104D400022110F00000000C0C00000000000003071
:104D500030000000000000800000000000008060C3
:104D60000000000000008040201008000001020444
:104D7000081020004040404040404000040404042B
:104D800004040400000810204080000000201008E7
:104D900004020100007048080808F000000000301C
:104DA00036010000C030C828E810E00007182724AA
:104DB00023140B000000C038E0000000203C230258
:104DC0000227382008F8888888700000203F2020BB
:104DD00020110E00C03008080808380007182020ED
:104DE0002010080008F808080810E000203F2020E4
:104DF00020100F0008F88888E8081000203F2020C5
:104E00002320180008F88888E8081000203F2000B8
:104E100003000000C03008080838000007182020F0
:104E2000221E020008F808000008F808203F2101AF
:104E300001213F20000808F8080800000020203F5A
:104E40002020000000000808F8080800C0808080CA
:104E50007F00000008F888C028180800203F2001C3
:104E60002638200008F8080000000000203F20201D
:104E70002020300008F8F800F8F80800203F003F34
:104E8000003F200008F830C00008F808203F20004C
:104E900007183F00E01008080810E0000F1020205D
:104EA00020100F0008F808080808F000203F210132
:104EB00001010000E01008080810E0000F18242489
:104EC00038504F0008F8888888887000203F2000FC
:104ED000030C3020007088080808380000382021B2
:104EE00021221C00180808F8080818000000203FBC
:104EF0002000000008F808000008F808001F202023
:104F000020201F000878880000C8380800000738F3
:104F10000E010000F80800F80008F800033C070044
:104F2000073C0300081868808068180820302C03AC
:104F3000032C30200838C800C83808000000203F83
:104F40002000000010080808C83808002038262172
:104F500020201800000000FE020202000000007F76
:104F600040404000000C30C0000000000000000184
:104F70000638C00000020202FE000000004040406F
:104F80007F00000000000402020204000000000094
:104F90000000000000000000000000008080808011
:104FA00080808080000202040000000000000000F9
:104FB0000000000000008080808000000019242292
:104FC00022223F2008F8008080000000003F1120CE
:104FD00020110E000000008080800000000E1120D3
:104FE00020201100000000808088F800000E1120B1
:104FF00020103F200000808080800000001F2222BF
:1050000022221300008080F0888888180020203F2A
:10501000202000000000808080808000006B94943D
:105020009493600008F8008080800000203F2100F9
:1050300000203F2000809898000000000020203FC2
:1050400020200000000000809898000000C08080B0
:10505000807F000008F8000080808000203F24024C
:105060002D302000000808F8000000000020203F3C
:10507000202000008080808080808000203F2000F1
:105080003F20003F8080008080800000203F210082
:1050900000203F200000808080800000001F202032
:1050A00020201F00808000808000000080FFA12061
:1050B00020110E000000008080808000000E112072
:1050C00020A0FF80808080008080800020203F2101
:1050D00020000100000080808080800000332424B4
:1050E00024241900008080E0808000000000001F60
:1050F000202000008080000000808000001F202011
:1051000020103F20808080000080808000010E30D1
:105110000806010080800080008080800F300C0332
:105120000C300F0000808000808080000020312E35
:105130000E312000808080000080808080818E7011
:105140001806010000808080808080000021302CC3
:105150002221300000000000807C020200000000DC
:10516000003F404000000000FF0000000000000081
:10517000FF0000000002027C800000000040403F71
:10518000000000000006010102020404000000000B
:10519000000000001F1C1F1E1F1E1F1F1E1F1E1FA2
:1051A0001F1D1F1E1F1E1F1F1E1F1E1FCC5100086C
:1051B00000000020240700002C3E0008FC550008D9
:1051C000240700208C070000D83E00081184A24A62
:1051D00004680901020304060708090C6910150296
:1051E0000406083E344310100105D100101202E2FB
:1051F00022223E8080FF80A0908886808025438286
:10520000423E000911FF4021060810204013807023
:10521000000D14FF08104060504C43405060C032F5
:10522000FF2BFE42010213FE180CFE225A8608884C
:1052300068180FE8080109113E000E110408072044
:10524000110D41817F01050930080F1040402020D9
:1052500050484443444850202040A0111F0242E2DD
:10526000524A467D05125262C2021F1060020CC0F3
:1052700004012AFC0501122E04047C0320013A3F9C
:1052800006091240128C080911FC011610F21212C4
:1052900002E01504047E0112FF00081311111F1112
:1052A00051807F5D08884828FD031308082D2011D0
:1052B0000905FD19FE0A10117F19201C18C74401A9
:1052C0002AFC050913C02B0407DA2AFF050912E19D
:1052D000215BFE22010911BF113E8040300F020107
:1052E0000B124282BF29404A820109123F414BFF03
:1052F00040010215FF16FC848484FC2A100104126C
:10530000FF10101A3F19223F0D120106408080083D
:105310001013804020908886808080838C102040ED
:1053200080211318071C408040450113172424A432
:10533000FE232213C03812FF0411081060080F1159
:10534000080601FF01068180404027100C035F29F9
:10535000F929FE390609138053300F0217FF080B95
:10536000111011161010F010101413FE110010136C
:105370008181414121110D030D11214141818100A4
:105380000D128A52225A4640475824528804081067
:10539000100141404F596949494969594F404101FC
:1053A0009F5C808292010C10FE8080C0001014402F
:1053B0004022241048807F0408182422404029F904
:1053C00029010217FE4BFF40010214FF2C08088838
:1053D000013AFF060B100808802238080C103C40E8
:1053E00040424C404070040830E0105C0204081059
:1053F0002040801B36637C777BF26B6FC530016782
:105400002BFED7AB76CA82C97DFA5947F0ADD4A23C
:10541000AF9CA472C0B7FD9326363FF7CC34A5E508
:10542000F171D8311504C723C31896059A07128065
:10543000E2EB27B27509832C1A1B6E5AA0523BD699
:10544000B329E32F8453D100FF00ED20FCB15B6A48
:10545000CBBE394A4C58CFD0EFAAFB434D338545DC
:10546000F9027F503C9FA851A3408F929D38F5BC14
:10547000B6DA2110FFF3D2CD0C13EC5F974417C4BA
:10548000A77E3D645D197360814FDC222A908846B7
:10549000EEB814DE5E0BDBE0323A0A4906245CC249
:1054A000D3AC629195E479E7C8376D8DD54EA96C80
:1054B00056F4EA657AAE08BA78252E1CA6B4C6E87A
:1054C000DD741F4BBD8B8A703EB5664803F60E61D6
:1054D0003557B986C11D9EE1F8981169D98E949B04
:1054E0001E87E9CE5528DF8CA1890DBFE6426841B1
:1054F000992D0FB054BB1652096AD53036A538BF66
:1055000040A39E81F3D7FB7CE339829B2FFF873436
:105510008E4344C4DEE9CB547B9432A6C2233DEED5
:105520004C950B42FAC34E082EA16628D924B276B8
:105530005BA2496D8BD12572F8F66486689816D403
:10554000A45CCC5D65B6926C1013704850FDEDB94B
:10555000DA5E154657A78D9D8490D8AB009D1A8CB6
:10556000BCD30AF7E45805B8B34506D02C1E8FCA41
:105570003F0F02C1AFBD0301138A6B3A9111414F36
:1055800067DCEA97F2CFCEF0B4E67396AC7422E70C
:10559000AD3585E2F937E81C75DF6E47F11A711DEC
:1055A00029C5896FB7620EAA18BE1BFC563E4BC6B2
:1055B000D279209ADBC0FE78CD5AF41FDDA833885B
:1055C00007C731B11210592780EC5F60517FA919CC
:1055D000B54A0D2DE57A9F93C99CEFA0E03B4DAEF7
:1055E0002AF5B0C8EBBB3C83539961172B047EBAF4
:0C55F00077D626E169146355210C7D007C
:0400000508000131BD
:00000001FF
